:10052100082C0A0A0A0A0A0A0A0A0823000000001B
:100531000000000008410000000000000000023E31
:02054100019027
:10024300E53960030202F87539011204AE8F3AE50D
:100253003A6538FF553AF536E53AF45FF540853AA5
:1002630038E538B4040BE54A7007F532E52B04F59D
:1002730033E53624FC604814601224FE6072047077
:1002830074054AE54A6403706CF54A22E54AB401F1
:100293000A054BE54BB40403E4F54BE54A640270ED
:1002A300547464253FF53FE4353EF53EE53F641461
:1002B3007004E53E6405703D753E01753F9022E58F
:1002C3004AB4010A154BE54BB4FF03E4F54BE54A89
:1002D300B40222749C253FF53F74FF353EF53EE59D
:1002E3003FB42C11E53EB4010C753E04753FB022BA
:0602F300A200B3920022FC
:10000E00755704E5354534600302015675340075A5
:10001E0035017F431206D4EFC413135403F52BE5B9
:10002E004A1460281470030200C8240260030201FF
:10003E0040752C0A752D0A752E0A752F0A75300A11
:10004E0075310A75320A75330A0201403001047F98
:10005E000080027F0A8F2C300106E54B04FF8002E0
:10006E007F0A8F2D3001047F0080027F0A8F2EAE13
:10007E003EAF3F7C037DE81204597C007D0A1204DA
:10008E00598D30AE3EAF3F7C007D641204597C002A
:10009E007D0A1204598D31AE3EAF3F7C007D0A12AF
:1000AE0004597C007D0A1204598D32AE3EAF3F7C5E
:1000BE00007D0A1204598D338078E4F52CE54B044B
:1000CE00F52DE4F52E3001047F0A8014AE3EAF3FCD
:1000DE007C037DE81204597C007D0A120459AF0599
:1000EE008F303001047F0A8014AE3EAF3F7C007D1E
:1000FE00641204597C007D0A120459AF058F313009
:10010E0001047F0A8014AE3EAF3F7C007D0A1204CC
:10011E00597C007D0A120459AF058F323001047FDD
:10012E000A800DAE3EAF3F7C007D0A120459AF052A
:10013E008F33742C2557F8E6700E760A0557E5575F
:08014E00B407EFE4F55780EA65
:010156002286
:1002F900300061E522653F7004E521653E7055F5E2
:1003090021F522E54B14601A146026146036240383
:1003190070420537E5376408703A753707754B0140
:1003290080321537E537F4702B753707754B028026
:100339002374092537F537D3942240187537227568
:100349004B03801074F72537F537D394C84005E47B
:10035900F537F54BE54BC394025017E4FFEFB5377A
:10036900047E0180027E0074412FF8A6060FBF08A3
:10037900EC22E4FFE53775F00A846F600BE5377509
:10038900F00A84E5F0B507047E0180027E0074411D
:080399002FF8A6060FBF08DCD7
:0103A1002239
:10078900538E7F5389F0758A18758CFCC28DD28C73
:05079900D2A9D2AF223D
:03000B0002015798
:10015700C0E0C0F0C083C082C0D075D000C000C06E
:1001670001C002C003C004C005C006C0070535E5CD
:100177003570020534FFAE34BE0109BFF40675348D
:10018700007535000539E539B40A03753900053BB3
:10019700E53BB40803753B000549E549B40C037515
:1001A7004900742C253BF8E6FD7C007423253BF8B9
:1001B700E6FB7A00AF3B12056D7441253BF8E6FD7F
:1001C7007C00AF3B1205F1053DE53D7002053CFFA4
:1001D700AE3CBE010EBF900B753C00753D00A20101
:1001E700B39201E52B2401FFE433FEEF7802C3331A
:1001F700CE33CED8F9FFC3E5499FEE6480F874800B
:1002070098500B7441253BF8E6FD7C008003E4FD24
:10021700FCAF3B1205F13000080522E5227002050C
:1002270021D007D006D005D004D003D002D001D00A
:0C02370000D0D0D082D083D0F0D0E032D4
:10079E0012071D12078912024312000E1202F9806F
:0107AE00F555
:10071D007580FFE5A0541F4480F5A053A01FE4F59C
:0D072D0080E5A0541F44A0F5A053A01F229A
:1004AE00E4FFC2C4D2C2D2B5D2B420B3027F0420BC
:1004BE00B2027F0520B1027F0620B0027F07D2C4B0
:1004CE00C2C2D2B5D2B420B3027F0820B2027F09D5
:1004DE0020B1027F0A20B0027F0BD2C4D2C2C2B5B5
:1004EE00D2B420B3027F0C20B2027F0D20B1027F66
:1004FE000E20B0027F0FD2C4D2C2D2B5C2B420B386
:10050E00027F1020B2027F1120B1027F1220B002B2
:02051E007F1349
:0105200022B8
:100543000B08C0F9A4B0999282F88090FF081301B8
:0705530002040810204080A3
:10056D007580FFE5A0541F44E0F5A053A01F741340
:10057D002FF8E6F580E5A0541F44C0F5A053A01F49
:10058D00EB4A600B74082DF8E6547FF580800774F4
:10059D00082DF8E6F580E5A0541F44E0F5A053A022
:0205AD001F220B
:10055A00014C00014DFF014E00014FFF0150000107
:02056A0051FF3F
:1005F100ED4C600F7401A807088002C333D8FC4298
:100601004C800E7401A807088002C333D8FCF45251
:100611004CE54D654C6013E54CF4F580E5A0541FA5
:0A0621004480F5A053A01F854C4D46
:01062B0022AC
:10068A00EF6005434E408003534EBFE54F654E6011
:10069A0013E54EF4F580E5A0541F44A0F5A053A03D
:0406AA001F854E4F0B
:0106AE002229
:1006AF00EF600543501080035350EFE551655060E4
:1006BF0013E550F4F580E5A0541F44A0F5A053A016
:0406CF001F855051E2
:0106D3002204
:04075700D2A07F0AA3
:10075B00000000000000000000000000000000AEE0
:06076B00071FEE70EB22F7
:0F07AF00D2A1120757C2A17F0A12075BC2A02274
:0C07BE00C2A1120757D2A17F0A02075BFC
:02065E00AD07E6
:10066000E4FCC2A07F0A12075BED30E704D2A18050
:1006700002C2A17F0A12075BD2A0ED25E0FD7F0A2E
:0906800012075B0CBC08DBC2A0F0
:01068900224E
:10073A00E4FC120757ED25E0FD30A103430501C291
:0C074A00A07F0A12075B0CBC08E8AF059A
:010756002280
:1006F900AB051207AF7FA012065E12070BAF0312FC
:02070900065E8A
:10070B00120757A2A1E433FDC2A07F0A12075BAF09
:01071B0005D8
:01071C0022BA
:10077100C2A0EF24FF92A17F0A12075B120757C2A2
:08078100A0D2A17F0A02075B70
:0206D400AB0772
:1006D6001207AF7F901207001207AF7F9112065ED6
:1006E60012070B12073AAD077F011207711207BEF8
:0206F600AF054E
:0106F80022DF
:10062C008B1B8A1C891D1206F9AF1F151FEF601F4B
:10063C00AB1B051DE51DAA1C7002051C14F9120448
:10064C002EFF12065E12070B7FC812075B80DA02C0
:02065C0007BED7
:1005AF008B528A5389541206F91207AF7FA1120694
:1005BF005E12070BAF561556EF602412073AAB5277
:1005CF000554E554AA537002055314F9EF1204476A
:1005DF00E5566004E4FF80027F0112077180D502A7
:0205EF0007BE45
:030000000203A256
:0C03A200787FE4F6D8FD7581570203E96E
:10042E00BB010689828A83E0225002E722BBFE02CC
:09043E00E32289828A83E49322FF
:10044700BB010689828A83F0225002F722BBFE0194
:02045700F3228E
:10045900BC000BBE0029EF8DF084FFADF022E4CC87
:10046900F875F008EF2FFFEE33FEEC33FCEE9DEC50
:10047900984005FCEE9DFE0FD5F0E9E4CEFD22ED96
:10048900F8F5F0EE8420D21CFEADF075F008EF2FE0
:10049900FFED33FD4007985006D5F0F222C398FDD1
:0504A9000FD5F0EA226E
:1003AE0002079EE493A3F8E493A34003F68001F2C0
:1003BE0008DFF48029E493A3F85407240CC8C33350
:1003CE00C4540F4420C8834004F456800146F6DF1F
:1003DE00E4800B0102040810204080900521E47E89
:1003EE00019360BCA3FF543F30E509541FFEE49314
:1003FE00A360010ECF54C025E060A840B8E493A3DB
:10040E00FAE493A3F8E493A3C8C582C8CAC583CA05
:10041E00F0A3C8C582C8CAC583CADFE9DEE780BEBD
:01056C00008E
:00000001FF
