:1009450008330A0A0A0A0A0A0A0A082400000000EB
:100955000000000008500000000000000000022E0A
:0B09650007D0023E0000032113030531
:1005F800E54360030206CC7543011208D28F44E537
:10060800446542FF5544F53DE544F45FF5498544AA
:1006180042E53D24FB601C24FD603114606E240516
:1006280060030206CC0559E559640460030206CC50
:10063800F55922E559B40105A201B39201E55964BF
:100648000360030206CCA200B392002220011C74AE
:10065800E8252FF52F7403352EF52EE52FB4100B52
:10066800E52EB42706752E03752FE83001567464FD
:10067800253FF53FE4353EF53EE53F64E87004E587
:100688003E6403703F753EFC753F7C222001167462
:1006980018252FF52F74FC352EF52E452F7006756D
:1006A8002E23752F2830011C749C253FF53F74FFBD
:1006B800353EF53EE53FB4180BE53EB4FC06753E05
:0506C80003753F8422D0
:10001E00750E03750F04E53C453B600302030D7539
:10002E003B00753C017B007A007921120B1BE52DFC
:10003E00253FF541E52C353EF540D3E5489541E5A4
:10004E00479540500F854047854148852130852290
:10005E0031852332E5591470030201261470030210
:10006E0002351470030202652403600302030DC3FC
:10007E00E54064809480406675330B75340A75359F
:10008E000AAE40AF417C277D101205B47C007D0A7C
:10009E001205B48D36AE40AF417C037DE81205B437
:1000AE007C007D0A1205B48D37AE40AF417C007DD9
:1000BE00641205B47C007D0A1205B48D38AE40AFD3
:1000CE00417C007D0A1205B47C007D0A1205B48DB8
:1000DE0039AE40AF417C007D0A1205B48D3AC3E5BE
:1000EE004064809480501D75330B75340A75350A43
:1000FE0075360A75370A75380A75390F753A0FE471
:10010E00FF120BDF7433250EF8E67009760A050E22
:10011E00E50EB407EFC2012220015675330C75347B
:10012E000175340A75340AAE2EAF2F7C037DE812AA
:10013E00055F7C007D0A12055F8D37AE2EAF2F7CDA
:10014E00007D6412055F7C007D0A12055F8D38AE5E
:10015E002EAF2F7C007D0A12055F7C007D0A1205F2
:10016E005F8D39AE2EAF2F7C007D0A12055F8D3A62
:10017E0022C3E53E64809480404875330C7534028A
:10018E00AE3EAF3F7C037DE81205B47C007D0A12C3
:10019E0005B48D37AE3EAF3F7C007D641205B47C56
:1001AE00007D0A1205B48D38AE3EAF3F7C007D0A4D
:1001BE001205B47C007D0A1205B48D39AE3EAF3FF8
:1001CE00804775330C753402753710AE3EAF3F7CE9
:1001DE00FF7DFF12054DAA06AB077C007D6412055C
:1001EE00B47C007D0A1205B48D387C007D0AAF0305
:1001FE00AE021205B47C007D0A1205B48D39AE3EF6
:10020E00AF3F7CFF7DFF12054D7C007D0A1205B4C9
:10021E008D3A7433250FF8E6600302030D760A0556
:10022E000FE50FB407EC22E521C4540FF533E52199
:10023E00540FF534753510E522C4540FF536E5220A
:10024E00540FF537753810E523C4540FF539E523EF
:10025E00540FF53AC2002220007875330D75340B19
:10026E0075350AAE47AF487C277D1012055F7C00BE
:10027E007D0A12055F8D36AE47AF487C037DE812CE
:10028E00055F7C007D0A12055F8D37AE47AF487C57
:10029E00007D6412055F7C007D0A12055F8D38AE0D
:1002AE0047AF487C007D0A12055F7C007D0A12056F
:1002BE005F8D39AE47AF487C007D0A12055F8D3ADF
:1002CE007433250EF8E67037760A050EE50EB40780
:1002DE00EF2275330D75340EE530C4540FF535E548
:1002EE0030540FF536E531C4540FF537E531540F60
:0F02FE00F538E532C4540FF539E532540FF53AAF
:01030D0022CD
:1006CD00D3E54194F4E54064809481500BE4F54DFD
:1006DD00F54C754B80754A3FC3E541952FE5409527
:1006ED002E400BE4F54DF54C754BA0754A40D3E506
:1006FD004194F4E54064809481403BE541952FE5BC
:10070D0040952E5031E52F240CFDE52E34FEFC7E58
:10071D00007F0412055FE541240CFDE54034FEFC2D
:10072D0012054DEF2401FDE43EFCE41204198F4D3A
:10073D008E4C8D4B8C4AE4FFFE7D4C7C42AB4DAA1A
:10074D004CA94BA84A12030E120452120BDFE559A5
:10075D0070047F0180027F00E5585FF550D3E541BD
:10076D00952FE540952E40058558518003E4F551B0
:0D077D00C3E5406480948050037551012253
:100BCA00538EBF53890F758B18758DFCC28FD28EC9
:050BDA00D2ABD2AF22F6
:100C0800538E7F5389F0438905E4F58AF58CC28DAC
:030C1800D28C2259
:03001B0002078A4F
:10078A00C0E0C0F0C083C082C0D075D000C000C035
:10079A0001C002C003C004C005C006C0070543E586
:1007AA0043B40A03754300053CE53C7002053BFF70
:1007BA00AE3BBE0109BFF406753B00753C0005451A
:1007CA00E545B40803754500054FE54F7002054E2F
:1007DA00FFAE4EBE0319BFE816754E00754F00AF47
:1007EA008CEFAD8AF52CEDF52D758A00758C000518
:1007FA0046E546B4C8067546006358017433254574
:10080A00F8E6FD7C0074242545F8E6FB7A00AF453E
:10081A001209A074502545F8E6FD7C00AF4512097F
:10082A00E2D007D006D005D004D003D002D001D040
:0C083A0000D0D0D082D083D0F0D0E032CB
:100B3C007B007A007921120A51120B59120C0812FF
:0D0B4C000BCA1205F812001E1206CD80F52E
:100B59007580FFE5A0541F4480F5A053A01FE4F55C
:0D0B690080E5A0541F44A0F5A053A01F225A
:1008D200E4FFC2C4D2C2D2B5D2B420B3027F042094
:1008E200B2027F0520B1027F0620B0027F07D2C488
:1008F200C2C2D2B5D2B420B3027F0820B2027F09AD
:1009020020B1027F0A20B0027F0BD2C4D2C2C2B58C
:10091200D2B420B3027F0C20B2027F0D20B1027F3D
:100922000E20B0027F0FD2C4D2C2D2B5C2B420B35D
:10093200027F1020B2027F1120B1027F1220B0028A
:020942007F1321
:010944002290
:10097000115AC0F9A4B0999282F88090FF8E8C89A8
:0D09800088C7BF086B0102040810204080EA
:1009A0007580FFE5A0541F44E0F5A053A01F746BB1
:1009B0002FF8E6F580E5A0541F44C0F5A053A01F12
:1009C000EB4A600B745A2DF8E6547FF5808007746B
:1009D0005A2DF8E6F580E5A0541F44E0F5A053A099
:0209E0001F22D4
:10098D000108000109FF010A00010BFF010C000124
:02099D000DFF4C
:1009E200ED4C600F7401A807088002C333D8FC42A3
:1009F20008800E7401A807088002C333D8FCF452A1
:100A020008E50865096013E508F4F580E5A0541FC0
:0A0A12004480F5A053A01F850809D9
:010A1C0022B7
:100AAC00EF6005430A408003530ABFE50A650B60FB
:100ABC0013E50AF4F580E5A0541F44A0F5A053A05B
:040ACC001F850A0B6D
:010AD0002203
:100AD100EF6005430C108003530CEFE50C650D60CE
:100AE10013E50CF4F580E5A0541F44A0F5A053A034
:040AF1001F850C0D44
:010AF50022DE
:100C1B00E4FEC297EF1392A3EFC313FFD2970EBE5E
:020C2B0008F0CF
:010C2D0022A4
:100BF400C29300C29700D29300120C1BAF05120CD3
:040C04001BC293225A
:100A1D00E4FDC29300C29700D29300120C1BE4FFB9
:100A2D00C297EDC313FD30A303430580D2970FBFCB
:100A3D0008EEC29300C29700D29700C2A300D2A3C2
:030A4D0000AF05F2
:010A50002283
:100A5100E4FD7F8E120BF41204D3FD7F84120BF49C
:100A61009000011204ECFD7F82120BF4900002123F
:0F0A710004ECFD7F80120BF47D807F8E020BF46E
:100B1B007F85120A1DEF1205197F83120A1D9000A3
:100B2B0001EF12052B7F81120A1D900002EF0205C7
:010B3B002B8E
:040BB000D2A07F0A46
:100BB400000000000000000000000000000000AE83
:060BC400071FEE70EB229A
:0F0C2E00D2A1120BB0C2A17F0A120BB4C2A02236
:0C0C3D00C2A1120BB0D2A17F0A020BB4BE
:020A8000AD07C0
:100A8200E4FCC2A07F0A120BB4ED30E704D2A180CD
:100A920002C2A17F0A120BB4D2A0ED25E0FD7F0AAB
:090AA200120BB40CBC08DBC2A06D
:010AAB002228
:100B7600E4FC120BB0ED25E0FD30A103430501C2F4
:0C0B8600A07F0A120BB40CBC08E8AF05FD
:010B92002240
:0B0B9300120A80120B9EAF03120A80B2
:100B9E00120BB0A2A1E433FDC2A07F0A120BB4AFB8
:010BAE000541
:010BAF002223
:10000300C2A0EF24FF92A17F0A120BB4120BB0C25D
:08001300A0D2A17F0A020BB488
:020AF600AB074C
:100AF800120C2E7F90120B93120C2E7F91120A80EB
:100B0800120B9E120B76AD077F01120003120C3DEB
:020B1800AF0527
:010B1A0022B8
:100BDF00AB07120C2E7F90120A80120B9E7F4112D0
:050BEF000B93020C3D18
:10030E00EC4D6011E8497017ED33EC3304600DE4E9
:10031E00FCFFFEFD22E933E8330470F80204BE123E
:10032E00048958046009E4CC24815006285009023F
:10033E0004C82840030204C5C0E0EB4A7044B980EB
:10034E0006D0E0FB0204B4EF4E701CBD8008EBFF3C
:10035E00EAFEE9FD80EBE98DF0A4FEE5F00203F77D
:10036E00E9CDF9EAFEEBFFEF89F0A4FCE5F0CE89CA
:10037E00F0A42EFFE435F0CD89F0A42DFEE435F087
:10038E008067EF4E7005BD80D780C3EF8BF0A4ACB5
:10039E00F0EE8BF0A42CFCE435F0F8EF8AF0A42CF0
:1003AE00E5F038FCE433CB8DF0A42CFCE5F03BF803
:1003BE00EE8AF0A42CFCE5F038F8E433CF89F0A4F3
:1003CE002CFCE5F038CF3400CE89F0A42FFFE5F0F9
:1003DE003EFEE433C98DF0A42EFEE5F039CD8AF051
:1003EE00A42FFFE5F03EFEE43DFD33D0E0FB5007C9
:1003FE000BBB000F0204C8EC2CFCEF33FFEE33FEF8
:06040E00ED33FD0204A025
:1004140075F020800E75F010800575F0087D007E63
:10042400007F003392D530D5031205EAEC33401037
:10043400EF33FFEE33FEED33FDEC33FCD5F0ED226C
:0E044400E5F0247EA2D513CC92E7CDCEFF22A8
:10045200EDD2E7CD33EC3392D524814006E4FFFEA2
:10046200FDFC22FCE4CFCECDCC24E0501174FF8001
:10047200EDC3CC13CCCD13CDCE13CECF13CF04709E
:07048200F030D5DE0205EAAF
:10048900E9D2E7C933E833F892D5EDD2E7CD33ECB9
:0704990033FC5002B2D52232
:1004A000EC30E7100FBF000C0EBE00080DBD0004BD
:1004B0000BEB6014A2D5EB13FCED92E7FD2274FF69
:1004C000FCFDFEFF22E480F8A2D574FF13FC7D80C2
:0304D000E480EFD6
:03000000020846AD
:0C084600787FE4F6D8FD75817202088D01
:1004D300BB010689828A83E0225002E722BBFE0227
:0904E300E32289828A83E493225A
:1004EC00BB010CE58229F582E5833AF583E02250C5
:1004FC0006E92582F8E622BBFE06E92582F8E2220F
:0D050C00E58229F582E5833AF583E4932228
:10051900BB010689828A83F0225002F722BBFE01C1
:02052900F322BB
:10052B00F8BB010DE58229F582E5833AF583E8F006
:10053B00225006E92582C8F622BBFE05E92582C8B2
:02054B00F2229A
:10054D00EF8DF0A4A8F0CF8CF0A428CE8DF0A42EC2
:02055D00FE227C
:10055F00BC000BBE0029EF8DF084FFADF022E4CC80
:10056F00F875F008EF2FFFEE33FEEC33FCEE9DEC49
:10057F00984005FCEE9DFE0FD5F0E9E4CEFD22ED8F
:10058F00F8F5F0EE8420D21CFEADF075F008EF2FD9
:10059F00FFED33FD4007985006D5F0F222C398FDCA
:0505AF000FD5F0EA2267
:1005B400C2D5EC30E709B2D5E4C39DFDE49CFCEE62
:1005C40030E715B2D5E4C39FFFE49EFE12055FC376
:1005D400E49DFDE49CFC800312055F30D507C3E471
:0605E4009FFFE49EFE22D1
:0E05EA00C3E49FFFE49EFEE49DFDE49CFC2222
:10085200020B3CE493A3F8E493A34003F68001F275
:1008620008DFF48029E493A3F85407240CC8C333A7
:10087200C4540F4420C8834004F456800146F6DF76
:10088200E4800B0102040810204080900945E47EB8
:10089200019360BCA3FF543F30E509541FFEE4936B
:1008A200A360010ECF54C025E060A840B8E493A332
:1008B200FAE493A3F8E493A3C8C582C8CAC583CA5D
:1008C200F0A3C8C582C8CAC583CADFE9DEE780BE15
:01099F000057
:00000001FF
