:10035C00082B0A0A0A0A0A0A0A0A082100000000E5
:0E036C0000000000083D00000000000000003E
:10062B00E537701A7537011203098F38E5386536CF
:0F063B00FF5538F535E538F45FF53A8538362246
:0D079400E5344533700675330075340122DD
:0107AD002229
:10075F00538E7F5389F0438905E4F58AF58CC28D5A
:03076F00D28C2207
:10070D00538EBF53890F758B18758DFCC28FD28E8A
:05071D00D2ABD2AF22B7
:03001B000201CE11
:1001CE00C0E0C0F0C083C082C0D075D000C000C0F7
:1001DE0001C002C003C004C005C006C0070537E554
:1001EE0037B40A037537000534E53470020533FF62
:1001FE00AE33BE0109BFF406753300753400053900
:10020E00E539B40803753900742B2539F8E6FD7C01
:10021E000074212539F8E6FB7A00AF3912043374E5
:10022E003D2539F8E6FD7C00AF39120475053CE535
:10023E003C7002053BFFAE3BBE0319BFE816753B93
:10024E0000753C00AF8CEFAD8AF529EDF52A758A65
:10025E0000758C00D007D006D005D004D003D00294
:0F026E00D001D000D0D0D082D083D0F0D0E032F9
:1007370012066812075F12070D12062B1207941292
:0407470007AD80F585
:100668007580FFE5A0541F4480F5A053A01FE4F552
:0D06780080E5A0541F44A0F5A053A01F2250
:10030900E4FFC2C4D2C2D2B5D2B4C392B3C392B2CB
:10031900C392B1C392B0D2C4C2C2D2B5D2B4C3924D
:10032900B3C392B2C392B1C392B0D2C4D2C2C2B55E
:10033900D2B4C392B3C392B2C392B1C392B0D2C47E
:10034900D2C2D2B5C2B4C392B3C392B2C392B1C33B
:0203590092B060
:01035B00227F
:10037A000108000109FF010A00010BFF010C00013D
:02038A000DFF65
:10047500ED4C600F7401A807088002C333D8FC4215
:1004850008800E7401A807088002C333D8FCF45213
:1004950008E50865096013E508F4F580E5A0541F33
:0A04A5004480F5A053A01F8508094C
:0104AF00222A
:10059B00EF6005430A408003530ABFE50A650B6011
:1005AB0013E50AF4F580E5A0541F44A0F5A053A071
:0405BB001F850A0B83
:0105BF002219
:1005C000EF6005430C108003530CEFE50C650D60E4
:1005D00013E50CF4F580E5A0541F44A0F5A053A04A
:0405E0001F850C0D5A
:0105E40022F4
:10038C001145C0F9A4B0999282F880908883C6A1D7
:0D039C00868EFF08560102040810204080E4
:100433007580FFE5A0541F44E0F5A053A01F745638
:100443002FF8E6F580E5A0541F44C0F5A053A01F84
:10045300EB4A600B74452DF8E6547FF580800774F2
:10046300452DF8E6F580E5A0541F44E0F5A053A020
:020473001F2246
:10077200E4FEC297EF1392A3EFC313FFD2970EBE0C
:0207820008F07D
:010784002252
:10074B00C29300C29700D29300120772AF05120733
:04075B0072C29322B1
:1004E500E4FDC29300C29700D29300120772E4FFA5
:1004F500C297EDC313FD30A303430580D2970FBF09
:1005050008EEC29300C29700D29700C2A300D2A3FF
:0305150000AF052F
:0105180022C0
:10051900E4FD7F8E12074B120146FD7F8412074BC3
:1005290090000112015FFD7F8212074B90000212B9
:0F053900015FFD7F8012074B7D807F8E02074B95
:10060A007F851204E5EF12018C7F831204E59000C6
:10061A0001EF12019E7F811204E5900002EF0201B0
:01062A009E31
:0406BF007F057E0035
:1006C300EF1FAA0670011E4A600BE4FDEDC3940CF4
:0506D30050EE0D80F760
:0106D80022FF
:02064A00A907FE
:10064C00E4FBC294E91392941206BFD294E9C3134B
:0C065C00F90BBB08ED7F057E000206C311
:1006D900E4FBC294ECC313FCD2943094034304802A
:0906E9001206BF0BBB08EBAF04C5
:0106F20022E5
:10057400C200D2947F0C7E001206C3C2947F507EC8
:10058400001206C3D2947F0A7E001206C3A294927C
:06059400001206BFA200E8
:01059A00223E
:1004B0001205747FCC12064A7F4412064A12057454
:1004C0007FCC12064A7FBE12064A1206D9A907122D
:1004D00006D9EFAD01FCE41200C3E4FBFA798078A1
:0404E00041120021A4
:0104E40022F5
:0406F300D2A07F0A08
:1006F700000000000000000000000000000000AE45
:06070700071FEE70EB225B
:0F078500D2A11206F3C2A17F0A1206F7C2A02268
:0C07A100C2A11206F3D2A17F0A0206F7E3
:02054800AD07FD
:10054A00E4FCC2A07F0A1206F7ED30E704D2A180CC
:10055A0002C2A17F0A1206F7D2A0ED25E0FD7F0AAA
:09056A001206F70CBC08DBC2A06C
:010573002265
:10068500E4FC1206F3ED25E0FD30A103430501C2AC
:0C069500A07F0A1206F70CBC08E8AF05B5
:0106A1002236
:0B06A2001205481206ADAF0312054818
:1006AD001206F3A2A1E433FDC2A07F0A1206F7AF32
:0106BD000537
:0106BE002219
:10000300C2A0EF24FF92A17F0A1206F71206F3C2E1
:08001300A0D2A17F0A0206F74A
:0205E500AB0762
:1005E7001207857F901206A21207857F9112054890
:1005F7001206AD120685AD077F011200031207A18F
:02060700AF053D
:0106090022CE
:10072200AB071207857F901205481206AD7F401273
:0507320006A20207A170
:1003F0008B0E8A0F8910AB051207857FA012054866
:100400001206ADAF031205488021AF121512EF603E
:100410001FAB0E0510E510AA0F7002050F14F9129C
:100420000146FF1205487F011200031206AD80DA73
:030430000207A11F
:1003AA008B138A148915AB051207857FA01206A242
:1003BA007FA11205481206ADAF171517EF60241278
:1003CA000685AB130515E515AA147002051414F970
:1003DA00EF12018CE5176004E4FF80027F0112002E
:0603EA000380D50207A10B
:10001E0002013BEC5D046005E859047003020131F6
:10002E001200FC580460F6EC4860F2EC7004FDFE21
:10003E00FF22C860DB2481C85009C39860025006B5
:10004E000201389850CAF582E9294B4A7005AB82F5
:10005E0002012775F0007C1A7880C3EF9BEE9AEDB3
:10006E0099400DC3EF9BFFEE9AFEED99FDE842F02D
:10007E00DC23ACF0D0E0FFD0E0FED0E0FDAB822080
:10008E00E7101BEB60BAEC2CFCEF33FFEE33FEED0A
:10009E0033FD020113E803F830E705C0F075F000F8
:1000AE00EF2FFFEE33FEED33FD40B830E7C280AAEE
:1000BE0075F020800E75F010800575F0087D007EBD
:1000CE00007F003392D530D5031201C0EC334010BF
:1000DE00EF33FFEE33FEED33FDEC33FCD5F0ED22C6
:0E00EE00E5F0247EA2D513CC92E7CDCEFF2202
:1000FC00E9D2E7C933E833F892D5EDD2E7CD33EC4A
:07010C0033FC5002B2D522C2
:10011300EC30E7100FBF000C0EBE00080DBD00044D
:100123000BEB6014A2D5EB13FCED92E7FD2274FFF9
:10013300FCFDFEFF22E480F8A2D574FF13FC7D8052
:03014300E480EF66
:0300000002027D7C
:0C027D00787FE4F6D8FD75815D0202C4B4
:10014600BB010689828A83E0225002E722BBFE02B7
:09015600E32289828A83E49322EA
:10015F00BB010CE58229F582E5833AF583E0225055
:10016F0006E92582F8E622BBFE06E92582F8E2229F
:0D017F00E58229F582E5833AF583E49322B9
:10018C00BB010689828A83F0225002F722BBFE0152
:02019C00F3224C
:10019E00F8BB010DE58229F582E5833AF583E8F097
:1001AE00225006E92582C8F622BBFE05E92582C843
:0201BE00F2222B
:0E01C000C3E49FFFE49EFEE49DFDE49CFC2250
:10028900020737E493A3F8E493A34003F68001F24D
:1002990008DFF48029E493A3F85407240CC8C33376
:1002A900C4540F4420C8834004F456800146F6DF45
:1002B900E4800B010204081020408090035CE47E76
:1002C900019360BCA3FF543F30E509541FFEE4933A
:1002D900A360010ECF54C025E060A840B8E493A301
:1002E900FAE493A3F8E493A3C8C582C8CAC583CA2C
:1002F900F0A3C8C582C8CAC583CADFE9DEE780BEE4
:0103A9000053
:00000001FF
