:1003450008290A0A0A0A0A0A0A0A082100000000FE
:0E035500000000000839000000000000000059
:10061700E535701A7535011202D28F36E536653425
:0F062700FF5536F533E536F45FF5388536342266
:0D076500E532453170067531007532012214
:0100030022DA
:1006F400538E7F5389F0758A18758CFCC28DD28C09
:05070400D2A9D2AF22D2
:03000B0002024AA4
:10024A00C0E0C0F0C083C082C0D075D000C000C07A
:10025A0001C002C003C004C005C006C0070535E5D9
:10026A0035B40A037535000532E53270020531FFEF
:10027A00AE31BE0109BFF40675310075320005378B
:10028A00E537B4080375370074292537F8E6FD7C8D
:10029A000074212537F8E6FB7A00AF3712038D7414
:1002AA00392537F8E6FD7C00AF37120411D007D0A4
:1002BA0006D005D004D003D002D001D000D0D0D0CF
:0802CA0082D083D0F0D0E032B5
:100745001200001206F41206171207651200038044
:01075500F5AE
:100654007580FFE5A0541F4480F5A053A01FE4F566
:0D06640080E5A0541F44A0F5A053A01F2264
:1002D200E4FFC2C2D2C0D2B5D2B420B3027F04209E
:1002E200B2027F0520B1027F0620B0027F07D2C290
:1002F200C2C0D2B5D2B420B3027F0820B2027F09B5
:1003020020B1027F0A20B0027F0BD2C2D2C0C2B596
:10031200D2B420B3027F0C20B2027F0D20B1027F43
:100322000E20B0027F0FD2C2D2C0D2B5C2B420B367
:10033200027F1020B2027F1120B1027F1220B00290
:020342007F1327
:010344002296
:100363000B08C0F9A4B0999282F88090FF0813019A
:070373000204081020408085
:10038D007580FFE5A0541F44E0F5A053A01F741322
:10039D002FF8E6F580E5A0541F44C0F5A053A01F2B
:1003AD00EB4A600B74082DF8E6547FF580800774D6
:1003BD00082DF8E6F580E5A0541F44E0F5A053A004
:0203CD001F22ED
:10037A000141000142FF0143000144FF0145000120
:02038A0046FF2C
:10041100ED4C600F7401A807088002C333D8FC4279
:1004210041800E7401A807088002C333D8FCF4523E
:1004310041E54165426013E541F4F580E5A0541FB3
:0A0441004480F5A053A01F8541423E
:01044B00228E
:10056300EF600543434080035343BFE54365446065
:1005730013E543F4F580E5A0541F44A0F5A053A070
:040583001F85434449
:010587002251
:10058800EF600543451080035345EFE54565466038
:1005980013E545F4F580E5A0541F44A0F5A053A049
:0405A8001F85454620
:0105AC00222C
:10073200E4FEC297EF1392A3EFC313FFD2970EBE4C
:0207420008F0BD
:010744002292
:10071E00C29300C29700D29300120732AF051207A0
:04072E0032C293221E
:10048100E4FDC29300C29700D29300120732E4FF49
:10049100C297EDC313FD30A303430580D2970FBF6D
:1004A10008EEC29300C29700D29700C2A300D2A364
:0304B10000AF0594
:0104B4002225
:10051300E4FD7F8E12071E120136FF12071E9000A4
:100523000112014FFF12071E90000212014FFF122A
:09053300071E7D807F8E02071E69
:1005F6007F85120481EF12017C7F831204819000B3
:1006060001EF12018E7F81120481900002EF020138
:010616008E55
:04068E00D2A07F0A6D
:10069200000000000000000000000000000000AEAA
:0606A200071FEE70EB22C1
:0F075600D2A112068EC2A17F0A120692C2A02261
:0C077200C2A112068ED2A17F0A020692DC
:0204E700AD075F
:1004E900E4FCC2A07F0A120692ED30E704D2A18093
:1004F90002C2A17F0A120692D2A0ED25E0FD7F0A71
:090509001206920CBC08DBC2A032
:0105120022C6
:10067100E4FC12068EED25E0FD30A103430501C225
:0C068100A07F0A1206920CBC08E8AF052E
:01068D00224A
:1005D200AB051207567FA01204E71205E4AF03121F
:0205E20004E72C
:1005E40012068EA2A1E433FDC2A07F0A120692AFC6
:0105F4000501
:0105F50022E3
:1006DC00C2A0EF24FF92A17F0A12069212068EC2CC
:0806EC00A0D2A17F0A020692D0
:0205AD00AB079A
:1005AF001207567F901205D91207567F911204E752
:1005BF001205E4120671AD077F011206DC120772F5
:0205CF00AF0576
:0105D1002207
:10070900AB071207567F901204E71205E47F4112E6
:0507190005D902077282
:1004B5008B1B8A1C891D1205D2AF1F151FEF601FEC
:1004C500AB1B051DE51DAA1C7002051C14F91201C4
:1004D50036FF1204E71205E47FC812069280DA029D
:0204E50007729C
:1003CF008B478A4889491205D21207567FA112041A
:1003DF00E71205E4AF4B154BEF6024120671AB47E4
:1003EF000549E549AA487002054814F9EF12017C46
:1003FF00E54B6004E4FF80027F011206DC80D5022A
:02040F00077272
:0406A8007F057E004C
:1006AC00EF1FAA0670011E4A600BE4FDEDC3940C0B
:0506BC0050EE0D80F777
:0106C1002216
:02063600A90712
:10063800E4FBC294E91392941206A8D294E9C31376
:0C064800F90BBB08ED7F057E000206AC3C
:1006C200E4FBC294ECC313FCD29430940343048041
:0906D2001206A80BBB08EBAF04F3
:0106DB0022FC
:10053C00C200D2947F0C7E001206ACC2947F507E17
:10054C00001206ACD2947F0A7E001206ACA29492E2
:06055C00001206A8A20037
:010562002276
:10044C0012053C7FCC1206367F4412063612053C50
:10045C007FCC1206367FBE1206361206C2A90712D0
:10046C0006C2EFAD01FCE41200B3E4FBFA7980782C
:04047C004112001118
:010480002259
:10000E0002012BEC5D046005E85904700302012126
:10001E001200EC580460F6EC4860F2EC7004FDFE41
:10002E00FF22C860DB2481C85009C39860025006C5
:10003E000201289850CAF582E9294B4A7005AB8215
:10004E0002011775F0007C1A7880C3EF9BEE9AEDD3
:10005E0099400DC3EF9BFFEE9AFEED99FDE842F03D
:10006E00DC23ACF0D0E0FFD0E0FED0E0FDAB822090
:10007E00E7101BEB60BAEC2CFCEF33FFEE33FEED1A
:10008E0033FD020103E803F830E705C0F075F00018
:10009E00EF2FFFEE33FEED33FD40B830E7C280AAFE
:1000AE0075F020800E75F010800575F0087D007ECD
:1000BE00007F003392D530D5031201B0EC334010DF
:1000CE00EF33FFEE33FEED33FDEC33FCD5F0ED22D6
:0E00DE00E5F0247EA2D513CC92E7CDCEFF2212
:1000EC00E9D2E7C933E833F892D5EDD2E7CD33EC5A
:0700FC0033FC5002B2D522D3
:10010300EC30E7100FBF000C0EBE00080DBD00045D
:100113000BEB6014A2D5EB13FCED92E7FD2274FF09
:10012300FCFDFEFF22E480F8A2D574FF13FC7D8062
:03013300E480EF76
:030000000201BE3C
:0C01BE00787FE4F6D8FD75814B02020545
:10013600BB010689828A83E0225002E722BBFE02C7
:09014600E32289828A83E49322FA
:10014F00BB010CE58229F582E5833AF583E0225065
:10015F0006E92582F8E622BBFE06E92582F8E222AF
:0D016F00E58229F582E5833AF583E49322C9
:10017C00BB010689828A83F0225002F722BBFE0162
:02018C00F3225C
:10018E00F8BB010DE58229F582E5833AF583E8F0A7
:10019E00225006E92582C8F622BBFE05E92582C853
:0201AE00F2223B
:0E01B000C3E49FFFE49EFEE49DFDE49CFC2260
:1001CA00020745E493A3F8E493A34003F68001F2FF
:1001DA0008DFF48029E493A3F85407240CC8C33336
:1001EA00C4540F4420C8834004F456800146F6DF05
:1001FA00E4800B0102040810204080900345E47E4D
:10020A00019360BCA3FF543F30E509541FFEE493F9
:10021A00A360010ECF54C025E060A840B8E493A3C0
:10022A00FAE493A3F8E493A3C8C582C8CAC583CAEB
:10023A00F0A3C8C582C8CAC583CADFE9DEE780BEA3
:01038C000070
:00000001FF
