:10011E00E4FEC297EF1392A3EFC313FFD2970EBE66
:02012E0008F0D7
:0101300022AC
:10010A00C29300C29700D2930012011EAF051201DA
:04011A001EC293224C
:1000B000E4FDC29300C29700D2930012011EE4FF38
:1000C000C297EDC313FD30A303430580D2970FBF42
:1000D00008EEC29300C29700D29700C2A300D2A339
:0300E00000AF0569
:0100E30022FA
:10007A00E4FD7F8E12010A7D807F8012010A120040
:10008A0000FD7F8412010A900001120019FD7F828F
:10009A0012010A900002120019FD7F8012010A7DE6
:0600AA00807F8E02010AB6
:1000E400C2AF7F851200B0EF1200467F831200B0CA
:1000F400900001EF1200587F811200B0900002EFCF
:06010400120058D2AF22E8
:10000000BB010689828A83E0225002E722BBFE02FE
:09001000E32289828A83E4932231
:10001900BB010CE58229F582E5833AF583E022509C
:1000290006E92582F8E622BBFE06E92582F8E222E6
:0D003900E58229F582E5833AF583E4932200
:10004600BB010689828A83F0225002F722BBFE0199
:02005600F32293
:10005800F8BB010DE58229F582E5833AF583E8F0DE
:10006800225006E92582C8F622BBFE05E92582C88A
:02007800F22272
:00000001FF
