:10036E00082A0A0A0A0A0A0A0A0A082100000000D4
:0E037E0000000000083B00000000000000002E
:10064000E536701A7536011202FB8F37E5376535CE
:0F065000FF5537F534E537F45FF5398537352237
:0D078C00E5334532700675320075330122E9
:0107A5002231
:10075700538E7F5389F0438905E4F58AF58CC28D62
:03076700D28C220F
:10070500538EBF53890F758B18758DFCC28FD28E92
:05071500D2ABD2AF22BF
:03001B000201CE11
:1001CE00C0E0C0F0C083C082C0D075D000C000C0F7
:1001DE0001C002C003C004C005C006C0070536E555
:1001EE0036B40A037536000533E53370020532FF67
:1001FE00AE32BE0109BFF406753200753300053804
:10020E00E538B40803753800742A2538F8E6FD7C05
:10021E000074212538F8E6FB7A00AF381203B67465
:10022E003B2538F8E6FD7C00AF3812043A053AAFAC
:10023E003A7E00BE0310BFE80D753A00E58AF52937
:10024E00758A00758C00D007D006D005D004D00377
:10025E00D002D001D000D0D0D082D083D0F0D0E068
:01026E00325D
:10072F0012067D12075712070512064012078C1288
:04073F0007A580F595
:10067D007580FFE5A0541F4480F5A053A01FE4F53D
:0D068D0080E5A0541F44A0F5A053A01F223B
:1002FB00E4FFC2C2D2C0D2B5D2B420B3027F042075
:10030B00B2027F0520B1027F0620B0027F07D2C266
:10031B00C2C0D2B5D2B420B3027F0820B2027F098B
:10032B0020B1027F0A20B0027F0BD2C2D2C0C2B56D
:10033B00D2B420B3027F0C20B2027F0D20B1027F1A
:10034B000E20B0027F0FD2C2D2C0D2B5C2B420B33E
:10035B00027F1020B2027F1120B1027F1220B00267
:02036B007F13FE
:01036D00226D
:10038C000B08C0F9A4B0999282F88090FF08130171
:07039C00020408102040805C
:1003B6007580FFE5A0541F44E0F5A053A01F7413F9
:1003C6002FF8E6F580E5A0541F44C0F5A053A01F02
:1003D600EB4A600B74082DF8E6547FF580800774AD
:1003E600082DF8E6F580E5A0541F44E0F5A053A0DB
:0203F6001F22C4
:1003A3000143000144FF0145000146FF01470001ED
:0203B30048FF01
:10043A00ED4C600F7401A807088002C333D8FC4250
:10044A0043800E7401A807088002C333D8FCF45213
:10045A0043E54365446013E543F4F580E5A0541F82
:0A046A004480F5A053A01F85434411
:010474002265
:10058C00EF600543454080035345BFE54565466034
:10059C0013E545F4F580E5A0541F44A0F5A053A045
:0405AC001F8545461C
:0105B0002228
:1005B100EF600543471080035347EFE54765486007
:1005C10013E547F4F580E5A0541F44A0F5A053A01E
:0405D1001F854748F3
:0105D5002203
:10076A00E4FEC297EF1392A3EFC313FFD2970EBE14
:02077A0008F085
:01077C00225A
:10074300C29300C29700D2930012076AAF05120743
:040753006AC29322C1
:1004AA00E4FDC29300C29700D2930012076AE4FFE8
:1004BA00C297EDC313FD30A303430580D2970FBF44
:1004CA0008EEC29300C29700D29700C2A300D2A33B
:0304DA0000AF056B
:0104DD0022FC
:10053C00E4FD7F8E120743120146FF120743900021
:10054C000112015FFF12074390000212015FFF12BC
:09055C0007437D807F8E020743F6
:10061F007F851204AAEF12018C7F831204AA900027
:10062F0001EF12019E7F811204AA900002EF0201D6
:01063F009E1C
:0406B700D2A07F0A44
:1006BB00000000000000000000000000000000AE81
:0606CB00071FEE70EB2298
:0F077D00D2A11206B7C2A17F0A1206BBC2A022E8
:0C079900C2A11206B7D2A17F0A0206BB63
:02051000AD0735
:10051200E4FCC2A07F0A1206BBED30E704D2A18040
:1005220002C2A17F0A1206BBD2A0ED25E0FD7F0A1E
:090532001206BB0CBC08DBC2A0E0
:01053B00229D
:10069A00E4FC1206B7ED25E0FD30A103430501C2D3
:0C06AA00A07F0A1206BB0CBC08E8AF05DC
:0106B6002221
:1005FB00AB0512077D7FA012051012060DAF03127B
:02060B000510D8
:10060D001206B7A2A1E433FDC2A07F0A1206BBAF4A
:01061D0005D7
:01061E0022B9
:10000300C2A0EF24FF92A17F0A1206BB1206B7C259
:08001300A0D2A17F0A0206BB86
:0205D600AB0771
:1005D80012077D7F9012060212077D7F9112051087
:1005E80012060D12069AAD077F0112000312079931
:0205F800AF054D
:0105FA0022DE
:10071A00AB0712077D7F9012051012060D7F41125A
:05072A00060202079920
:1004DE008B1B8A1C891D1205FBAF1F151FEF601F9A
:1004EE00AB1B051DE51DAA1C7002051C14F912019B
:1004FE0046FF12051012060D7FC81206BB80DA02E7
:02050E0007994B
:1003F8008B498A4A894B1205FB12077D7FA112059A
:100408001012060DAF4D154DEF602412069AAB4938
:10041800054BE54BAA4A7002054A14F9EF12018C04
:10042800E54D6004E4FF80027F0112000380D502DD
:02043800079922
:0406D1007F057E0023
:1006D500EF1FAA0670011E4A600BE4FDEDC3940CE2
:0506E50050EE0D80F74E
:0106EA0022ED
:02065F00A907E9
:10066100E4FBC294E91392941206D1D294E9C31324
:0C067100F90BBB08ED7F057E000206D5EA
:1006EB00E4FBC294ECC313FCD29430940343048018
:0906FB001206D10BBB08EBAF04A1
:0107040022D2
:10056500C200D2947F0C7E001206D5C2947F507EC5
:10057500001206D5D2947F0A7E001206D5A2949267
:06058500001206D1A200E5
:01058B00224D
:100475001205657FCC12065F7F4412065F12056583
:100485007FCC12065F7FBE12065F1206EBA907122C
:1004950006EBEFAD01FCE41200C3E4FBFA798078CA
:0404A50041120021DF
:0104A9002230
:10001E0002013BEC5D046005E859047003020131F6
:10002E001200FC580460F6EC4860F2EC7004FDFE21
:10003E00FF22C860DB2481C85009C39860025006B5
:10004E000201389850CAF582E9294B4A7005AB82F5
:10005E0002012775F0007C1A7880C3EF9BEE9AEDB3
:10006E0099400DC3EF9BFFEE9AFEED99FDE842F02D
:10007E00DC23ACF0D0E0FFD0E0FED0E0FDAB822080
:10008E00E7101BEB60BAEC2CFCEF33FFEE33FEED0A
:10009E0033FD020113E803F830E705C0F075F000F8
:1000AE00EF2FFFEE33FEED33FD40B830E7C280AAEE
:1000BE0075F020800E75F010800575F0087D007EBD
:1000CE00007F003392D530D5031201C0EC334010BF
:1000DE00EF33FFEE33FEED33FDEC33FCD5F0ED22C6
:0E00EE00E5F0247EA2D513CC92E7CDCEFF2202
:1000FC00E9D2E7C933E833F892D5EDD2E7CD33EC4A
:07010C0033FC5002B2D522C2
:10011300EC30E7100FBF000C0EBE00080DBD00044D
:100123000BEB6014A2D5EB13FCED92E7FD2274FFF9
:10013300FCFDFEFF22E480F8A2D574FF13FC7D8052
:03014300E480EF66
:0300000002026F8A
:0C026F00787FE4F6D8FD75814D0202B6E0
:10014600BB010689828A83E0225002E722BBFE02B7
:09015600E32289828A83E49322EA
:10015F00BB010CE58229F582E5833AF583E0225055
:10016F0006E92582F8E622BBFE06E92582F8E2229F
:0D017F00E58229F582E5833AF583E49322B9
:10018C00BB010689828A83F0225002F722BBFE0152
:02019C00F3224C
:10019E00F8BB010DE58229F582E5833AF583E8F097
:1001AE00225006E92582C8F622BBFE05E92582C843
:0201BE00F2222B
:0E01C000C3E49FFFE49EFEE49DFDE49CFC2250
:10027B0002072FE493A3F8E493A34003F68001F263
:10028B0008DFF48029E493A3F85407240CC8C33384
:10029B00C4540F4420C8834004F456800146F6DF53
:1002AB00E4800B010204081020408090036EE47E72
:1002BB00019360BCA3FF543F30E509541FFEE49348
:1002CB00A360010ECF54C025E060A840B8E493A30F
:1002DB00FAE493A3F8E493A3C8C582C8CAC583CA3A
:1002EB00F0A3C8C582C8CAC583CADFE9DEE780BEF2
:0103B5000047
:00000001FF
