:10011200E4FEC297EF1392A3EFC313FFD2970EBE72
:0201220008F0E3
:0101240022B8
:1000FE00C29300C29700D29300120112AF051201F3
:04010E0012C2932264
:10007A00E4FDC29300C29700D29300120112E4FF7A
:10008A00C297EDC313FD30A303430580D2970FBF78
:10009A0008EEC29300C29700D29700C2A300D2A36F
:0300AA0000AF059F
:0100AD002230
:1000DD007F8512007AEF1200467F8312007A90001E
:1000ED0001EF1200587F8112007A900002EF02009A
:0100FD0058AA
:1000AE00E4FD7F8E1200FE120000FD7F841200FE22
:1000BE00900001120019FD7F821200FE90000212C4
:0F00CE000019FD7F801200FE7D807F8E0200FEF4
:10000000BB010689828A83E0225002E722BBFE02FE
:09001000E32289828A83E4932231
:10001900BB010CE58229F582E5833AF583E022509C
:1000290006E92582F8E622BBFE06E92582F8E222E6
:0D003900E58229F582E5833AF583E4932200
:10004600BB010689828A83F0225002F722BBFE0199
:02005600F32293
:10005800F8BB010DE58229F582E5833AF583E8F0DE
:10006800225006E92582C8F622BBFE05E92582C88A
:02007800F22272
:00000001FF
