:1001950008100A0A0A0A0A0A0A0A080800000000E2
:0E01A500000000000820000000000000000024
:1002AA00E51C701A751C011201228F1DE51D651BC4
:0F02BA00FF551DF51AE51DF45FF51F851D1B226D
:0D030C00E5194518700675180075190122D5
:0100030022DA
:1002E600438E805389F0758A20758CD1C28DD28C4D
:0502F600D2A9D2AF22E5
:03000B0002009A56
:10009A00C0E0C0F0C083C082C0D075D000C000C02C
:1000AA0001C002C003C004C005C006C007051CE5A4
:1000BA001CB40A03751C000519E51970020518FF1E
:1000CA00AE18BE0109BFF406751800751900051EA1
:1000DA00E51EB40803751E007410251EF8E6FD7CA3
:1000EA00007408251EF8E6FB7A00AF1E1201E374BD
:1000FA0020251EF8E6FD7C00AF1E120225D007D08F
:10010A0006D005D004D003D002D001D000D0D0D080
:08011A0082D083D0F0D0E03266
:1002FB001202C91202E61202AA12030C12000380A8
:01030B00F5FC
:1002C9007580FFE5A0541F4480F5A053A01FE4F5F5
:0D02D90080E5A0541F44A0F5A053A01F22F3
:10012200E4FFC2C4D2C2D2B5D2B420B3027F04204B
:10013200B2027F0520B1027F0620B0027F07D2C43F
:10014200C2C2D2B5D2B420B3027F0820B2027F0964
:1001520020B1027F0A20B0027F0BD2C4D2C2C2B544
:10016200D2B420B3027F0C20B2027F0D20B1027FF5
:100172000E20B0027F0FD2C4D2C2D2B5C2B420B315
:10018200027F1020B2027F1120B1027F1220B00242
:020192007F13D9
:010194002248
:1001B3000141000142FF0143000144FF01450001E9
:0201C30046FFF5
:10022500ED4C600F7401A807088002C333D8FC4267
:1002350041800E7401A807088002C333D8FCF4522C
:1002450041E54165426013E541F4F580E5A0541FA1
:0A0255004480F5A053A01F8541422C
:01025F00227C
:10026000EF600543434080035343BFE5436544606B
:1002700013E543F4F580E5A0541F44A0F5A053A076
:040280001F8543444F
:010284002257
:10028500EF600543451080035345EFE5456546603E
:1002950013E545F4F580E5A0541F44A0F5A053A04F
:0402A5001F85454626
:0102A9002232
:1001C5001128C0F9A4B0999282F880908883C6A1BD
:0D01D500868EFF08390102040810204080CA
:1001E3007580FFE5A0541F44E0F5A053A01F7439A8
:1001F3002FF8E6F580E5A0541F44C0F5A053A01FD7
:10020300EB4A600974282DF8E6F580800974282DDF
:10021300F8E6547FF580E5A0541F44E0F5A053A011
:020223001F2298
:0300000002000EED
:0C000E00787FE4F6D8FD758146020055AD
:10001A000202FBE493A3F8E493A34003F68001F2FF
:10002A0008DFF48029E493A3F85407240CC8C333E7
:10003A00C4540F4420C8834004F456800146F6DFB6
:10004A00E4800B0102040810204080900195E47EB0
:10005A00019360BCA3FF543F30E509541FFEE493AB
:10006A00A360010ECF54C025E060A840B8E493A372
:10007A00FAE493A3F8E493A3C8C582C8CAC583CA9D
:10008A00F0A3C8C582C8CAC583CADFE9DEE780BE55
:0101E200001C
:00000001FF
