:1009670008340A0A0A0A0A0A0A0A082600000000C6
:1009770000000000084D0000000000000000022EEB
:10098700000002240000023007D002490000C10124
:07099700C1000321133055DC
:10060300E54060030206E57540011208F48F41E5F9
:100613003F6541FF5541F53EE541F45FF5448541B2
:100623003FE53E24FB601C24FD6031146077240504
:1006330060030206E50558E558640460030206E515
:10064300F55822E558B40105A201B39201E55864B7
:100653000360030206E5A200B3920022E558640199
:1006630060030206E520011C74E82531F5317403AB
:100673003530F530E531B4100BE530B4270675306D
:100683002375312830015B7464254AF54AE4354902
:10069300F549E54A64E87004E54964037044754923
:1006A30003754A8422E558B40138200116741825CD
:1006B30031F53174FC3530F5304531700675300352
:1006C3007531E830011C749C254AF54A74FF35499D
:1006D300F549E54AB4180BE549B4FC067549FC75C0
:0306E3004A7C222C
:10001E00750E03750F04751005E53D453C60030232
:10002E000318753C00753D01E52F254AF525E52E93
:10003E003549F5247B007A007921120B70D3E53314
:10004E009525E5329524500F8524328525337B0086
:10005E007A007955120B70E55814700302012214C0
:10006E007003020240147003020270240360030244
:10007E000318C3E52464809480406875340B75358D
:10008E000A75360AAE24AF257C277D101205BF7C7B
:10009E00007D0A1205BF8D37AE24AF257C037DE8A7
:1000AE001205BF7C007D0A1205BF8D38AE24AF2528
:1000BE007C007D641205BF7C007D0A1205BF8D3960
:1000CE00AE24AF257C007D0A1205BF7C007D0A128E
:1000DE0005BF8D3AAE24AF257C007D0A1205BF8D7B
:1000EE003B801D75340B75350A75360A75370A75E2
:1000FE00380A75390A753A11753B11E4FF120C175F
:10010E007434250EF8E67009760A050EE50EB4076E
:10011E00EFC2012220016A75340C75350175360A5D
:10012E0075370AAE30AF317C037DE812056A7C006C
:10013E007D0A12056A8D38AE30AF317C007D6412B7
:10014E00056A7C007D0A12056A8D39AE30AF317CAE
:10015E00007D0A12056A7C007D0A12056A8D3AAE90
:10016E0030AF317C007D0A12056A8D3B7434250F49
:10017E00F8E66003020318760A050FE50FB407ECE4
:10018E0022C3E54964809480403D75340C75350278
:10019E0075360A75370A75380AAE49AF4A7C007D46
:1001AE00641205BF7C007D0A1205BF8D39AE49AFC2
:1001BE004A7C007D0A1205BF7C007D0A1205BF8DA8
:1001CE003AAE49AF4A804D75340C75350275360A14
:1001DE0075370A753810AE49AF4A7CFF7DFF1205A0
:1001EE0058AA06AB077C007D641205BF7C007D0A11
:1001FE001205BF8D397C007D0AAF03AE021205BF1A
:10020E007C007D0A1205BF8D3AAE49AF4A7CFF7D58
:10021E00FF1205587C007D0A1205BF8D3B743425F4
:10022E0010F8E66003020318760A0510E510B4070D
:10023E00EC22E521C4540FF534E521540FF5357544
:10024E003610E522C4540FF537E522540FF53875F4
:10025E003910E523C4540FF53AE523540FF53BC28C
:10026E00002220007875340D75350B75360AAE32C6
:10027E00AF337C277D1012056A7C007D0A12056A59
:10028E008D37AE32AF337C037DE812056A7C007D7C
:10029E000A12056A8D38AE32AF337C007D641205CA
:1002AE006A7C007D0A12056A8D39AE32AF337C004E
:1002BE007D0A12056A7C007D0A12056A8D3AAE32FD
:1002CE00AF337C007D0A12056A8D3B7434250EF81F
:1002DE00E67037760A050EE50EB407EF2275340D7B
:1002EE0075350EE555C4540FF536E555540FF537F3
:1002FE00E556C4540FF538E556540FF539E557C495
:0A030E00540FF53AE557540FF53B84
:0103180022C2
:1006E600D3E52594F4E52464809481500BE4F54821
:1006F600F54775468075453FC3E5259531E5249553
:1007060030400BE4F548F5477546A0754540D3E5FE
:100716002594F4E52464809481403BE5259531E5F4
:100726002495305031E531240CFDE53034FEFC7E55
:10073600007F0412056AE525240CFDE52434FEFC41
:10074600120558EF2401FDE43EFCE41204248F4810
:100756008E478D468C45E4FFFE7D4C7C42AB48AA15
:1007660047A946A84512031912045D120C17A202E6
:10077600E433FFE55870047E0180027E00EE5FF5EB
:100786004DD3E5259531E52495304008A202E433A2
:10079600F54E8003E4F54EC3E5246480948050034F
:0407A600754E012269
:100C4000538E7F5389F0438905E4F58AF58CC28D74
:030C5000D28C2221
:100C0200538EBF53890F758B18758DFCC28FD28E90
:050C1200D2ABD2AF22BD
:03001B000207AA2F
:1007AA00C0E0C0F0C083C082C0D075D000C000C015
:1007BA0001C002C003C004C005C006C0070540E569
:1007CA0040B40A03754000053DE53D7002053CFF53
:1007DA00AE3CBE0109BFF406753C00753D000542FA
:1007EA00E542B4080375420074342542F8E6FD7CFC
:1007FA000074262542F8E6FB7A00AF421209CF744C
:10080A004D2542F8E6FD7C00AF42120A11054CE57F
:10081A004C7002054BFFAE4BBE0319BFE816754B71
:10082A0000754C00AF8CEFAD8AF52EEDF52F758C67
:10083A0000758A000543E543B4C808754300A2025F
:10084A00B39202D007D006D005D004D003D002D08C
:0E085A0001D000D0D0D082D083D0F0D0E032D8
:100ADB007B007A007921120A807B007A007921123F
:100AEB000B70120B91120C40120C02120603120027
:060AFB001E1206E680F564
:1008F400E4FFC2C4D2C2D2B5D2B420B3027F042072
:10090400B2027F0520B1027F0620B0027F07D2C465
:10091400C2C2D2B5D2B420B3027F0820B2027F098A
:1009240020B1027F0A20B0027F0BD2C4D2C2C2B56A
:10093400D2B420B3027F0C20B2027F0D20B1027F1B
:100944000E20B0027F0FD2C4D2C2D2B5C2B420B33B
:10095400027F1020B2027F1120B1027F1220B00268
:020964007F13FF
:01096600226E
:10099E001259C0F9A4B0999282F88090FF8E8C897A
:0E09AE008887BFC7086B010204081020408034
:1009CF007580FFE5A0541F44E0F5A053A01F746B82
:1009DF002FF8E6F580E5A0541F44C0F5A053A01FE3
:1009EF00EB4A600B74592DF8E6547FF5808007743D
:1009FF00592DF8E6F580E5A0541F44E0F5A053A06B
:020A0F001F22A4
:100B91007580FFE5A0541F4480F5A053A01FE4F524
:0D0BA10080E5A0541F44A0F5A053A01F2222
:1009BC000108000109FF010A00010BFF010C0001F5
:0209CC000DFF1D
:100A1100ED4C600F7401A807088002C333D8FC4273
:100A210008800E7401A807088002C333D8FCF45271
:100A310008E50865096013E508F4F580E5A0541F91
:0A0A41004480F5A053A01F850809AA
:010A4B002288
:100B0100EF6005430A408003530ABFE50A650B60A5
:100B110013E50AF4F580E5A0541F44A0F5A053A005
:040B21001F850A0B17
:010B250022AD
:100B2600EF6005430C108003530CEFE50C650D6078
:100B360013E50CF4F580E5A0541F44A0F5A053A0DE
:040B46001F850C0DEE
:010B4A002288
:100C5300E4FEC297EF1392A3EFC313FFD2970EBE26
:020C630008F097
:010C6500226C
:100C2C00C29300C29700D29300120C53AF05120C62
:040C3C0053C29322EA
:100A4C00E4FDC29300C29700D29300120C53E4FF52
:100A5C00C297EDC313FD30A303430580D2970FBF9C
:100A6C0008EEC29300C29700D29700C2A300D2A393
:030A7C0000AF05C3
:010A7F002254
:100A8000E4FD7F8E120C2C1204DEFD7F84120C2CF0
:100A90009000011204F7FD7F82120C2C90000212CC
:0F0AA00004F7FD7F80120C2C7D807F8E020C2CC2
:100B70007F85120A4CEF1205247F83120A4C9000E5
:100B800001EF1205367F81120A4C900002EF020538
:010B9000362E
:040BE800D2A07F0A0E
:100BEC00000000000000000000000000000000AE4B
:060BFC00071FEE70EB2262
:0F0C6600D2A1120BE8C2A17F0A120BECC2A0228E
:0C0C7500C2A1120BE8D2A17F0A020BEC16
:020AAF00AD0791
:100AB100E4FCC2A07F0A120BECED30E704D2A18066
:100AC10002C2A17F0A120BECD2A0ED25E0FD7F0A44
:090AD100120BEC0CBC08DBC2A006
:010ADA0022F9
:100BAE00E4FC120BE8ED25E0FD30A103430501C284
:0C0BBE00A07F0A120BEC0CBC08E8AF058D
:010BCA002208
:0B0BCB00120AAF120BD6AF03120AAFE4
:100BD600120BE8A2A1E433FDC2A07F0A120BECAF10
:010BE6000509
:010BE70022EB
:10000300C2A0EF24FF92A17F0A120BEC120BE8C2ED
:08001300A0D2A17F0A020BEC50
:020B4B00AB07F6
:100B4D00120C667F90120BCB120C667F91120AAFBE
:100B5D00120BD6120BAEAD077F01120003120C75EE
:020B6D00AF05D2
:010B6F002263
:100C1700AB07120C667F90120AAF120BD67F4112F8
:050C27000BCB020C756F
:10031900EC4D6011E8497017ED33EC3304600DE4DE
:10032900FCFFFEFD22E933E8330470F80204C91228
:10033900049458046009E4CC248150062850090229
:1003490004D32840030204D0C0E0EB4A7044B980CA
:1003590006D0E0FB0204BFEF4E701CBD8008EBFF26
:10036900EAFEE9FD80EBE98DF0A4FEE5F002040266
:10037900E9CDF9EAFEEBFFEF89F0A4FCE5F0CE89BF
:10038900F0A42EFFE435F0CD89F0A42DFEE435F07C
:100399008067EF4E7005BD80D780C3EF8BF0A4ACAA
:1003A900F0EE8BF0A42CFCE435F0F8EF8AF0A42CE5
:1003B900E5F038FCE433CB8DF0A42CFCE5F03BF8F8
:1003C900EE8AF0A42CFCE5F038F8E433CF89F0A4E8
:1003D9002CFCE5F038CF3400CE89F0A42FFFE5F0EE
:1003E9003EFEE433C98DF0A42EFEE5F039CD8AF046
:1003F900A42FFFE5F03EFEE43DFD33D0E0FB5007BE
:100409000BBB000F0204D3EC2CFCEF33FFEE33FEE1
:06041900ED33FD0204AB0F
:10041F0075F020800E75F010800575F0087D007E58
:10042F00007F003392D530D5031205F5EC33401021
:10043F00EF33FFEE33FEED33FDEC33FCD5F0ED2261
:0E044F00E5F0247EA2D513CC92E7CDCEFF229D
:10045D00EDD2E7CD33EC3392D524814006E4FFFE97
:10046D00FDFC22FCE4CFCECDCC24E0501174FF80F6
:10047D00EDC3CC13CCCD13CDCE13CECF13CF047093
:07048D00F030D5DE0205F599
:10049400E9D2E7C933E833F892D5EDD2E7CD33ECAE
:0704A40033FC5002B2D52227
:1004AB00EC30E7100FBF000C0EBE00080DBD0004B2
:1004BB000BEB6014A2D5EB13FCED92E7FD2274FF5E
:1004CB00FCFDFEFF22E480F8A2D574FF13FC7D80B7
:0304DB00E480EFCB
:030000000208688B
:0C086800787FE4F6D8FD7581720208AFBD
:1004DE00BB010689828A83E0225002E722BBFE021C
:0904EE00E32289828A83E493224F
:1004F700BB010CE58229F582E5833AF583E02250BA
:1005070006E92582F8E622BBFE06E92582F8E22203
:0D051700E58229F582E5833AF583E493221D
:10052400BB010689828A83F0225002F722BBFE01B6
:02053400F322B0
:10053600F8BB010DE58229F582E5833AF583E8F0FB
:10054600225006E92582C8F622BBFE05E92582C8A7
:02055600F2228F
:10055800EF8DF0A4A8F0CF8CF0A428CE8DF0A42EB7
:02056800FE2271
:10056A00BC000BBE0029EF8DF084FFADF022E4CC75
:10057A00F875F008EF2FFFEE33FEEC33FCEE9DEC3E
:10058A00984005FCEE9DFE0FD5F0E9E4CEFD22ED84
:10059A00F8F5F0EE8420D21CFEADF075F008EF2FCE
:1005AA00FFED33FD4007985006D5F0F222C398FDBF
:0505BA000FD5F0EA225C
:1005BF00C2D5EC30E709B2D5E4C39DFDE49CFCEE57
:1005CF0030E715B2D5E4C39FFFE49EFE12056AC360
:1005DF00E49DFDE49CFC800312056A30D507C3E45B
:0605EF009FFFE49EFE22C6
:0E05F500C3E49FFFE49EFEE49DFDE49CFC2217
:10087400020ADBE493A3F8E493A34003F68001F2B5
:1008840008DFF48029E493A3F85407240CC8C33385
:10089400C4540F4420C8834004F456800146F6DF54
:1008A400E4800B0102040810204080900967E47E74
:1008B400019360BCA3FF543F30E509541FFEE49349
:1008C400A360010ECF54C025E060A840B8E493A310
:1008D400FAE493A3F8E493A3C8C582C8CAC583CA3B
:1008E400F0A3C8C582C8CAC583CADFE9DEE780BEF3
:0109CE000028
:00000001FF
