:1003350008100A0A0A0A0A0A0A0A08080000000040
:0E03450000000000084400000000000000005E
:10045000E51AC3940A401AE4F51A1201348F1BE519
:1004600019651BFF551BF518E51BF45FF51D851B72
:0204700019224F
:1004B800C37841E694F418E694014006E47840F6DF
:0304C80008F62211
:0104CB00220E
:10042C007843E6FF601D7835E6C3940A4015E478FE
:10043C0042F67835F6FEFDFB7A0079361201EDE4D2
:04044C007843F622D9
:0300230002028551
:10028500C0E0C0F0C083C082C0D075D000C000C03F
:1002950001C002C003C004C005C006C00730982CC9
:1002A50078427601783576007843E62436F8A699C3
:1002B500784306C298E6D3940A401176007E007F03
:1002C5000A7D007B007A0079361201EDD007D00651
:1002D500D005D004D003D002D001D000D0D0D08238
:0702E500D083D0F0D0E0321D
:10000E00538E7F5389F0758A18758CFCC28DD28CF5
:05001E00D2A9D2AF22BF
:03000B00020219D5
:10021900C0E0C0F0C083C082C0D075D000C000C0AB
:1002290001C002C003C004C005C006C007051A7892
:100239004106E618700106051CE51CB40803751C87
:10024900007410251CF8E6FD7C007408251CF8E6EE
:10025900FB7A00AF1C1202EC7B007A007944120091
:10026900B2D007D006D005D004D003D002D001D037
:0C02790000D0D0D082D083D0F0D0E03292
:10048A0012040512000E1204A11204501204B8122A
:07049A0004CB12042C80F2D8
:100405007580FFE5A0541FFF4307808FA0E5A0542A
:100415001FF5A0E4F580E5A0541FFF4307A08FA0BA
:06042500E5A0541FF5A044
:01042B0022AE
:10013400E4FFC2C4D2C2D2B5D2B420B3027F042039
:10014400B2027F0520B1027F0620B0027F07D2C42D
:10015400C2C2D2B5D2B420B3027F0820B2027F0952
:1001640020B1027F0A20B0027F0BD2C4D2C2C2B532
:10017400D2B420B3027F0C20B2027F0D20B1027FE3
:100184000E20B0027F0FD2C4D2C2D2B5C2B420B303
:10019400027F1020B2027F1120B1027F1220B00230
:0201A4007F13C7
:0101A6002236
:100353000C21C0F9A4B0999282F88090FF88082DEF
:08036300010204081020408093
:1002EC007580FFE5A0541FFE4306E08EA0E5A054E8
:1002FC001FF5A0742D2FF8E6F580E5A0541FFE43E2
:10030C0006C08EA0E5A0541FF5A074212DF8E6F5CB
:10031C0080EB4A600353807FE5A0541FFE4306E048
:08032C008EA0E5A0541FF5A00E
:0103340022A6
:0C036B00014D00014FFF014C00014EFF4E
:1000B200E4784DF69000011201C025E0FF1201A77D
:1000C2004FFF9000021201C025E025E04FFF900093
:1000D200031201C033333354F84FFF90000412016E
:1000E200C0C454F04FFF9000051201C0C43354E065
:1000F2004FFF9000061201C0C4333354C04FFF902B
:1001020000071201C0C433333354804FFF784DF6D9
:10011200784FE66F601B784DE6FFF4F580E5A0545A
:100122001FFE4306808EA0E5A0541FF5A0784FA6BF
:0101320007C5
:0101330022A9
:100472007580FFE5A0541FFF4307808FA0E5A054BD
:070482001FF5A0E4784FF61E
:010489002250
:10037800784CE63000054440F6800354BFF6794EC9
:10038800E7784C666018E6FFF580E5A0541FFE4349
:0E03980006A08EA0E5A0541FF5A0784EA60783
:0103A6002234
:1003A700784CE63001054410F6800354EFF6794E99
:1003B700E7784C666018E6FFF580E5A0541FFE431A
:0E03C70006A08EA0E5A0541FF5A0784EA60754
:0103D5002205
:1003D600784CE63002054420F6800354DFF6794E69
:1003E600E7784C666018E6FFF580E5A0541FFE43EB
:0E03F60006A08EA0E5A0541FF5A0784EA60725
:0104040022D5
:1004A100759850438E01538EFB75D7E675D6FF4381
:0704B1008E10D2ACD2AF2285
:080003008F993099FDC299228A
:03000000020026D5
:0C002600787FE4F6D8FD75814F02006D74
:1001A700BB010689828A83E0225002E722BBFE0256
:0901B700E32289828A83E4932289
:1001C000BB010CE58229F582E5833AF583E02250F4
:1001D00006E92582F8E622BBFE06E92582F8E2223E
:0D01E000E58229F582E5833AF583E4932258
:1001ED00EF4E6012EF60010EEDBB010B89828A8329
:1001FD00F0A3DFFCDEFA2289F05007F709DFFCA936
:0C020D00F022BBFEFCF309DFFCA9F0228C
:1000320002048AE493A3F8E493A34003F68001F256
:1000420008DFF48029E493A3F85407240CC8C333CF
:10005200C4540F4420C8834004F456800146F6DF9E
:10006200E4800B0102040810204080900335E47EF6
:10007200019360BCA3FF543F30E509541FFEE49393
:10008200A360010ECF54C025E060A840B8E493A35A
:10009200FAE493A3F8E493A3C8C582C8CAC583CA85
:1000A200F0A3C8C582C8CAC583CADFE9DEE780BE3D
:010377000085
:00000001FF
