:10066300082B0A0A0A0A0A0A0A0A082100000000DB
:100673000000000008450000000000000000C182E7
:02068300C18034
:1006B100E53770417537011208808F38E5366538A6
:1006C100FF5538F535E538F45FF53E853836E535C3
:1006D10024FB601014601314601624037017A20128
:1006E100B3920122A203B3920322A200B392002289
:0606F100A202B3920222F6
:10035F00751D03E534453360030204707533007572
:10036F0034017F431207EAAC07E4120247E4FBFAB9
:10037F00794C78421201278F428E418D408C3F205D
:10038F00030CE4F53DF53CF53B753A40800C854296
:10039F003D85413C85403B853F3AA201E433F5263C
:1003AF00200172752B0BAE29AF2A7C277D1012020C
:1003BF00FC7C007D0A1202FC8D2EAE29AF2A7C0335
:1003CF007DE81202FC7C007D0A1202FC8D2FAE2903
:1003DF00AF2A7C007D641202FC7C007D0A1202FCB5
:1003EF008D30AE29AF2A7C007D0A1202FC7C007D85
:1003FF000A1202FC8D31AE29AF2A7C007D0A12024F
:10040F00FC8D32742B251DF8E67056760A051DE516
:10041F001DB407EF22752B0C752E0A752F0AAF42EC
:10042F00AE41AD40AC3F12027B8F30E4FFFE7DC882
:10043F007C42AB42AA41A940A83F12001E12027B88
:10044F00AB07AA067C007D0A1202FC7C007D0A1213
:10045F0002FC8D317C007D0AAF03AE021202FC8DCF
:01046F00325A
:010470002269
:10053300E4FFFE7D4C7C42AB3DAA3CA93BA83A12AA
:10054300001E12027B1208ACE4FFA201E433B507DC
:10055300047E0180027E0074452FF8A6060FBF02B9
:10056300E9E4FFFE7DC07C3FAB42AA41A940A83F1E
:100573001201C44014E4FFFE7D207C40AB42AA413B
:10058300A940A83F1201C44014E4FFFE7D607C40F3
:10059300AB42AA41A940A83F1201C440047F018095
:1005A300027F008F47C3E52A94E8E5299403400AB4
:1005B300E52A9488E5299413400BC3E52A9410E5B2
:1005C30029942740047F0180027F008F48A203E41F
:0305D30033F54AB3
:0105D6002202
:1008D500538E7F5389F0438905E4F58AF58CC28DE3
:0308E500D28C2290
:10089700538EBF53890F758B18758DFCC28FD28EFF
:0508A700D2ABD2AF222C
:03001B000204716B
:10047100C0E0C0F0C083C082C0D075D000C000C051
:1004810001C002C003C004C005C006C0070537E5AE
:1004910037B40A037537000534E53470020533FFBC
:1004A100AE33BE0109BFF40675330075340005395A
:1004B100E539B40803753900300214742B2539F875
:1004C100E6FD7C0074212539F8E6FB7A008006E41C
:1004D100FBFA7D0AFCAF391206F730000B74452593
:1004E10039F8E6FD7C008003E4FDFCAF39120739E1
:1004F1000544E54470020543FFAE43BE0319BFE85E
:1005010016754300754400AF8CEFAD8AF529EDF502
:100511002A758C00758A00D007D006D005D004D08A
:1005210003D002D001D000D0D0D082D083D0F0D07F
:02053100E032B6
:1008C10012080F1208D51208971206B112035F120F
:0408D100053380F576
:10088000E4FF20B3027F0420B2027F0520B1027F83
:060890000620B0027F0704
:01089600223F
:100685000D08C0F9A4B0999282F88090FF8EC10838
:0906950015010204081020408048
:1006F7007580FFE5A0541F44E0F5A053A01F7415B3
:100707002FF8E6F580E5A0541F44C0F5A053A01FBD
:10071700EB4A600B74082DF8E6547FF58080077468
:10072700082DF8E6F580E5A0541F44E0F5A053A096
:020737001F227F
:10080F007580FFE5A0541F4480F5A053A01FE4F5A9
:0D081F0080E5A0541F44A0F5A053A01F22A7
:10069E00014D00014EFF014F000150FF01510001BD
:0206AE0052FFF9
:10073900ED4C600F7401A807088002C333D8FC424E
:100749004D800E7401A807088002C333D8FCF45207
:100759004DE54D654E6013E54DF4F580E5A0541F58
:0A0769004480F5A053A01F854D4EFB
:010773002263
:1007A000EF6005434F408003534FBFE54F655060F6
:1007B00013E54FF4F580E5A0541F44A0F5A053A025
:0407C0001F854F50F2
:0107C4002212
:1007C500EF600543511080035351EFE551655260C9
:1007D50013E551F4F580E5A0541F44A0F5A053A0FE
:0407E5001F855152C9
:0107E90022ED
:04086600D2A07F0A93
:10086A00000000000000000000000000000000AED0
:06087A00071FEE70EB22E7
:0F08E800D2A1120866C2A17F0A12086AC2A0221A
:0C08F700C2A1120866D2A17F0A02086AA2
:02077400AD07CF
:10077600E4FCC2A07F0A12086AED30E704D2A18029
:1007860002C2A17F0A12086AD2A0ED25E0FD7F0A07
:0907960012086A0CBC08DBC2A0C9
:01079F002237
:10082C00E4FC120866ED25E0FD30A103430501C28E
:0C083C00A07F0A12086A0CBC08E8AF0597
:01084800228D
:0B084900120774120854AF031207746A
:10085400120866A2A1E433FDC2A07F0A12086AAF9F
:01086400058E
:010865002270
:10000300C2A0EF24FF92A17F0A12086A120866C2F7
:08001300A0D2A17F0A02086AD5
:0207EA00AB075B
:1007EC001208E87F901208491208E87F91120774EA
:1007FC0012085412082CAD077F011200031208F7DF
:02080C00AF0536
:01080E0022C7
:1008AC00AB071208E87F901207741208547F4112AC
:0508BC0008490208F7E5
:10001E00EC4D6011E8497017ED33EC3304600DE4DC
:10002E00FCFFFEFD22E933E8330470F80202E7120A
:10003E0002B258046009E4CC24815006285009020B
:10004E0002F12840030202EEC0E0EB4A7044B98090
:10005E0006D0E0FB0202DDEF4E701CBD8008EBFF08
:10006E00EAFEE9FD80EBE98DF0A4FEE5F002010762
:10007E00E9CDF9EAFEEBFFEF89F0A4FCE5F0CE89BD
:10008E00F0A42EFFE435F0CD89F0A42DFEE435F07A
:10009E008067EF4E7005BD80D780C3EF8BF0A4ACA8
:1000AE00F0EE8BF0A42CFCE435F0F8EF8AF0A42CE3
:1000BE00E5F038FCE433CB8DF0A42CFCE5F03BF8F6
:1000CE00EE8AF0A42CFCE5F038F8E433CF89F0A4E6
:1000DE002CFCE5F038CF3400CE89F0A42FFFE5F0EC
:1000EE003EFEE433C98DF0A42EFEE5F039CD8AF044
:1000FE00A42FFFE5F03EFEE43DFD33D0E0FB5007BC
:10010E000BBB000F0202F1EC2CFCEF33FFEE33FEC3
:06011E00ED33FD0202C9F1
:100124000202F1EC5D046005E8590470030202E781
:100134001202B2580460F6EC4860F2EC7004FDFE62
:10014400FF22C860DB2481C85009C39860025006AE
:100154000202EE9850CAF582E9294B4A7005AB8237
:100164000202DD75F0007C1A7880C3EF9BEE9AEDF5
:1001740099400DC3EF9BFFEE9AFEED99FDE842F026
:10018400DC23ACF0D0E0FFD0E0FED0E0FDAB822079
:10019400E7101BEB60BAEC2CFCEF33FFEE33FEED03
:1001A40033FD0202C9E803F830E705C0F075F0003A
:1001B400EF2FFFEE33FEED33FD40B830E7C280AAE7
:1001C40074F8CC6480CCC86480C8F58204604FC3E2
:1001D400EB9FF5F0EA9E42F0E99D42F0E89C45F081
:1001E400603C501DE5825FFFE582D313CB5BCBF40B
:1001F4002B5582FB50280ABA002409B90020088034
:100204001DE5825BFBE582D313CF5FCFF4C3132FCD
:100214005582FF50090EBE00050DBD00010CC3EB55
:100224009FF5F0EA9E42F0E99D42F0E89C45F060BB
:0902340007CC4820E701B3EC22DD
:10023D0075F020800E75F010800575F0087D007E3C
:10024D00007F003392D530D503120351EC334010AB
:10025D00EF33FFEE33FEED33FDEC33FCD5F0ED2245
:0E026D00E5F0247EA2D513CC92E7CDCEFF2281
:10027B00EDD2E7CD33EC3392D524814006E4FFFE7B
:10028B00FDFC22FCE4CFCECDCC24E0501174FF80DA
:10029B00EDC3CC13CCCD13CDCE13CECF13CF047077
:0702AB00F030D5DE02035123
:1002B200E9D2E7C933E833F892D5EDD2E7CD33EC92
:0702C20033FC5002B2D5220B
:1002C900EC30E7100FBF000C0EBE00080DBD000496
:1002D9000BEB6014A2D5EB13FCED92E7FD2274FF42
:1002E900FCFDFEFF22E480F8A2D574FF13FC7D809B
:0302F900E480EFAF
:030000000205D71F
:0C05D700787FE4F6D8FD75815202061E04
:1002FC00BC000BBE0029EF8DF084FFADF022E4CCE6
:10030C00F875F008EF2FFFEE33FEEC33FCEE9DECAE
:10031C00984005FCEE9DFE0FD5F0E9E4CEFD22EDF4
:10032C00F8F5F0EE8420D21CFEADF075F008EF2F3E
:10033C00FFED33FD4007985006D5F0F222C398FD2F
:05034C000FD5F0EA22CC
:0E035100C3E49FFFE49EFEE49DFDE49CFC22BD
:1005E3000208C1E493A3F8E493A34003F68001F265
:1005F30008DFF48029E493A3F85407240CC8C33319
:10060300C4540F4420C8834004F456800146F6DFE7
:10061300E4800B0102040810204080900663E47E0E
:10062300019360BCA3FF543F30E509541FFEE493DC
:10063300A360010ECF54C025E060A840B8E493A3A3
:10064300FAE493A3F8E493A3C8C582C8CAC583CACE
:10065300F0A3C8C582C8CAC583CADFE9DEE780BE86
:0106B0000049
:00000001FF
