:1001950008100A0A0A0A0A0A0A0A080800000000E2
:0E01A500000000000820000000000000000024
:1002A400E51C701A751C011201228F1DE51D651BCA
:0F02B400FF551DF51AE51DF45FF51A851D1B2278
:0D030600E5194518700675180075190122DB
:0100030022DA
:1002E000538E7F5389F0758A18758CFCC28DD28C21
:0502F000D2A9D2AF22EB
:03000B0002009A56
:10009A00C0E0C0F0C083C082C0D075D000C000C02C
:1000AA0001C002C003C004C005C006C0070519E5A7
:1000BA001970020518FFAE18BE0109BFF4067518BB
:1000CA0000751900051CE51CB40A03751C00051E01
:1000DA00E51EB40803751E007410251EF8E6FD7CA3
:1000EA00007408251EF8E6FB7A00AF1E1201DD74C3
:1000FA0020251EF8E6FD7C00AF1E12021FD007D095
:10010A0006D005D004D003D002D001D000D0D0D080
:08011A0082D083D0F0D0E03266
:1002F5001202C31202E01202A412030612000380C6
:01030500F502
:1002C3007580FFE5A0541F4480F5A053A01FE4F5FB
:0D02D30080E5A0541F44A0F5A053A01F22F9
:10012200E4FFC2C4D2C2D2B5D2B420B3027F04204B
:10013200B2027F0520B1027F0620B0027F07D2C43F
:10014200C2C2D2B5D2B420B3027F0820B2027F0964
:1001520020B1027F0A20B0027F0BD2C4D2C2C2B544
:10016200D2B420B3027F0C20B2027F0D20B1027FF5
:100172000E20B0027F0FD2C4D2C2D2B5C2B420B315
:10018200027F1020B2027F1120B1027F1220B00242
:020192007F13D9
:010194002248
:1001B3000B28C0F9A4B0999282F88090FF0833010C
:0701C3000204081020408037
:1001DD007580FFE5A0541F44E0F5A053A01F7433B4
:1001ED002FF8E6F580E5A0541F44C0F5A053A01FDD
:1001FD00EB4A600B74282DF8E6547FF58080077468
:10020D00282DF8E6F580E5A0541F44E0F5A053A095
:02021D001F229E
:1001CA00013B00013CFF013D00013EFF013F0001F0
:0201DA0040FFE4
:10021F00ED4C600F7401A807088002C333D8FC426D
:10022F003B800E7401A807088002C333D8FCF45238
:10023F003BE53C653B6013E53BF4F580E5A0541FBF
:0A024F004480F5A053A01F853B3C3E
:010259002282
:10025A00EF6005433D408003533DBFE53E653D6089
:10026A0013E53DF4F580E5A0541F44A0F5A053A082
:04027A001F853D3E61
:01027E00225D
:10027F00EF6005433F108003533FEFE540653F605C
:10028F0013E53FF4F580E5A0541F44A0F5A053A05B
:04029F001F853F4038
:0102A3002238
:0300000002000EED
:0C000E00787FE4F6D8FD758140020055B3
:10001A000202F5E493A3F8E493A34003F68001F205
:10002A0008DFF48029E493A3F85407240CC8C333E7
:10003A00C4540F4420C8834004F456800146F6DFB6
:10004A00E4800B0102040810204080900195E47EB0
:10005A00019360BCA3FF543F30E509541FFEE493AB
:10006A00A360010ECF54C025E060A840B8E493A372
:10007A00FAE493A3F8E493A3C8C582C8CAC583CA9D
:10008A00F0A3C8C582C8CAC583CADFE9DEE780BE55
:0101DC000022
:00000001FF
