:1003250008290A0A0A0A0A0A0A0A0821000000001E
:0E033500000000000839000000000000000079
:1005F400E535701A7535011202D28F36E536653449
:0F060400FF5536F533E536F45FF5388536342289
:0D075F00E53245317006753100753201221A
:0100030022DA
:1006EE00538E7F5389F0758A18758CFCC28DD28C0F
:0506FE00D2A9D2AF22D9
:03000B0002024AA4
:10024A00C0E0C0F0C083C082C0D075D000C000C07A
:10025A0001C002C003C004C005C006C0070535E5D9
:10026A0035B40A037535000532E53270020531FFEF
:10027A00AE31BE0109BFF40675310075320005378B
:10028A00E537B4080375370074292537F8E6FD7C8D
:10029A000074212537F8E6FB7A00AF371203FC74A5
:1002AA00392537F8E6FD7C00AF3712043ED007D077
:1002BA0006D005D004D003D002D001D000D0D0D0CF
:0802CA0082D083D0F0D0E032B5
:10073F001206311206EE1205F412075F1200038043
:01074F00F5B4
:100631007580FFE5A0541F4480F5A053A01FE4F589
:0D06410080E5A0541F44A0F5A053A01F2287
:1002D200E4FFC2C4D2C2D2B5D2B4C392B3C392B203
:1002E200C392B1C392B0D2C4C2C2D2B5D2B4C39285
:1002F200B3C392B2C392B1C392B0D2C4D2C2C2B596
:10030200D2B4C392B3C392B2C392B1C392B0D2C4B5
:10031200D2C2D2B5C2B4C392B3C392B2C392B1C372
:0203220092B097
:0103240022B6
:100343000108000109FF010A00010BFF010C000174
:020353000DFF9C
:10043E00ED4C600F7401A807088002C333D8FC424C
:10044E0008800E7401A807088002C333D8FCF4524A
:10045E0008E50865096013E508F4F580E5A0541F6A
:0A046E004480F5A053A01F85080983
:010478002261
:10056400EF6005430A408003530ABFE50A650B6048
:1005740013E50AF4F580E5A0541F44A0F5A053A0A8
:040584001F850A0BBA
:010588002250
:10058900EF6005430C108003530CEFE50C650D601B
:1005990013E50CF4F580E5A0541F44A0F5A053A081
:0405A9001F850C0D91
:0105AD00222B
:100355001141C0F9A4B0999282F880908883C6A112
:0D036500868EFF085201020408102040801F
:1003FC007580FFE5A0541F44E0F5A053A01F745274
:10040C002FF8E6F580E5A0541F44C0F5A053A01FBB
:10041C00EB4A600B74412DF8E6547FF5808007742D
:10042C00412DF8E6F580E5A0541F44E0F5A053A05B
:02043C001F227D
:10072C00E4FEC297EF1392A3EFC313FFD2970EBE52
:02073C0008F0C3
:01073E002298
:10071800C29300C29700D2930012072CAF051207AC
:040728002CC293222A
:1004AE00E4FDC29300C29700D2930012072CE4FF22
:1004BE00C297EDC313FD30A303430580D2970FBF40
:1004CE0008EEC29300C29700D29700C2A300D2A337
:0304DE0000AF0567
:0104E10022F8
:1004E200E4FD7F8E120718120136FD7F8412071871
:1004F20090000112014FFD7F821207189000021234
:0F050200014FFD7F801207187D807F8E02071842
:1005D3007F851204AEEF12017C7F831204AE90007C
:1005E30001EF12018E7F811204AE900002EF02012F
:0105F3008E79
:040688007F057E006C
:10068C00EF1FAA0670011E4A600BE4FDEDC3940C2B
:05069C0050EE0D80F797
:0106A1002236
:02061300A90735
:10061500E4FBC294E9139294120688D294E9C313B9
:0C062500F90BBB08ED7F057E0002068C7F
:1006A200E4FBC294ECC313FCD29430940343048061
:0906B2001206880BBB08EBAF0433
:0106BB00221C
:10053D00C200D2947F0C7E0012068CC2947F507E36
:10054D000012068CD2947F0A7E0012068CA2949221
:06055D0000120688A20056
:010563002275
:1004790012053D7FCC1206137F4412061312053D67
:100489007FCC1206137FBE1206131206A2A9071209
:1004990006A2EFAD01FCE41200B3E4FBFA7980781F
:0404A90041120011EB
:0104AD00222C
:0406BC00D2A07F0A3F
:1006C000000000000000000000000000000000AE7C
:0606D000071FEE70EB2293
:0F075000D2A11206BCC2A17F0A1206C0C2A0220B
:0C076C00C2A11206BCD2A17F0A0206C086
:02051100AD0734
:10051300E4FCC2A07F0A1206C0ED30E704D2A1803A
:1005230002C2A17F0A1206C0D2A0ED25E0FD7F0A18
:090533001206C00CBC08DBC2A0DA
:01053C00229C
:10064E00E4FC1206BCED25E0FD30A103430501C21A
:0C065E00A07F0A1206C00CBC08E8AF0523
:01066A00226D
:0B066B00120511120676AF03120511F4
:100676001206BCA2A1E433FDC2A07F0A1206C0AFD7
:01068600056E
:010687002250
:1006D600C2A0EF24FF92A17F0A1206C01206BCC276
:0806E600A0D2A17F0A0206C0A8
:0205AE00AB0799
:1005B0001207507F9012066B1207507F911205119F
:1005C00012067612064EAD077F011206D612076C90
:0205D000AF0575
:0105D2002206
:10070300AB071207507F901205111206767F401235
:05071300066B02076CFB
:1003B9008B0E8A0F8910AB051207507FA012051109
:1003C900120676AF031205118021AF121512EF60E4
:1003D9001FAB0E0510E510AA0F7002050F14F912D4
:1003E9000136FF1205117F011206D612067680DA50
:0303F90002076C8C
:100373008B138A148915AB051207507FA012066BE5
:100383007FA1120511120676AF171517EF6024121D
:10039300064EAB130515E515AA147002051414F9DE
:1003A300EF12017CE5176004E4FF80027F0112066F
:0603B300D680D502076CA4
:10000E0002012BEC5D046005E85904700302012126
:10001E001200EC580460F6EC4860F2EC7004FDFE41
:10002E00FF22C860DB2481C85009C39860025006C5
:10003E000201289850CAF582E9294B4A7005AB8215
:10004E0002011775F0007C1A7880C3EF9BEE9AEDD3
:10005E0099400DC3EF9BFFEE9AFEED99FDE842F03D
:10006E00DC23ACF0D0E0FFD0E0FED0E0FDAB822090
:10007E00E7101BEB60BAEC2CFCEF33FFEE33FEED1A
:10008E0033FD020103E803F830E705C0F075F00018
:10009E00EF2FFFEE33FEED33FD40B830E7C280AAFE
:1000AE0075F020800E75F010800575F0087D007ECD
:1000BE00007F003392D530D5031201B0EC334010DF
:1000CE00EF33FFEE33FEED33FDEC33FCD5F0ED22D6
:0E00DE00E5F0247EA2D513CC92E7CDCEFF2212
:1000EC00E9D2E7C933E833F892D5EDD2E7CD33EC5A
:0700FC0033FC5002B2D522D3
:10010300EC30E7100FBF000C0EBE00080DBD00045D
:100113000BEB6014A2D5EB13FCED92E7FD2274FF09
:10012300FCFDFEFF22E480F8A2D574FF13FC7D8062
:03013300E480EF76
:030000000201BE3C
:0C01BE00787FE4F6D8FD75815902020537
:10013600BB010689828A83E0225002E722BBFE02C7
:09014600E32289828A83E49322FA
:10014F00BB010CE58229F582E5833AF583E0225065
:10015F0006E92582F8E622BBFE06E92582F8E222AF
:0D016F00E58229F582E5833AF583E49322C9
:10017C00BB010689828A83F0225002F722BBFE0162
:02018C00F3225C
:10018E00F8BB010DE58229F582E5833AF583E8F0A7
:10019E00225006E92582C8F622BBFE05E92582C853
:0201AE00F2223B
:0E01B000C3E49FFFE49EFEE49DFDE49CFC2260
:1001CA0002073FE493A3F8E493A34003F68001F205
:1001DA0008DFF48029E493A3F85407240CC8C33336
:1001EA00C4540F4420C8834004F456800146F6DF05
:1001FA00E4800B0102040810204080900325E47E6D
:10020A00019360BCA3FF543F30E509541FFEE493F9
:10021A00A360010ECF54C025E060A840B8E493A3C0
:10022A00FAE493A3F8E493A3C8C582C8CAC583CAEB
:10023A00F0A3C8C582C8CAC583CADFE9DEE780BEA3
:01037200008A
:00000001FF
