:1006E20008290A0A0A0A0A0A0A0A0821000000005E
:1006F2000000000008440000000000000000043E6A
:0C07020041BC000001331703382359529A
:10067100E536706C7536011205FE8F37E535653745
:10068100FF5537F534E537F45FF53D853735E54CF2
:10069100B4010BE535B41104D2008002C200E53487
:1006A10024F3603724FD60121460202405703105A5
:1006B1004CE54C64037029F54C22E54C6402702032
:1006C1000533E533B4641975336322E54CB4021084
:1006D1001533E533B4090975330A22A203B3920332
:0106E10022F6
:1003C900E532453160030204B57531007532011219
:1003D90008078F418E408D3F8C3E7B007A0079382B
:1003E900120910E54C14605414700302049024029D
:1003F90060030204B575290B752A01AF41AE40AD02
:100409003FAC3E12026BEF75F00A8475F00A8485E1
:10041900F02EEF75F00A8485F02FE4FFFE7D207C35
:1004290041AB41AA40A93FA83E12000E12026B7CC3
:10043900007D0A1203668D3075270122E4F5272015
:10044900002175290B752A02E538C4540FF52CE5EE
:1004590038540FF52D752E0CE539C4540FF52FE5D9
:1004690039801F75290B752A02E539C4540FF52CFB
:10047900E539540FF52D752E0CE53AC4540FF52FB7
:10048900E53A540FF5302275290B752A03752C0AA4
:10049900752D0A752E0AE53375F00A8475F00A84FC
:0D04A90085F02FE53375F00A8485F03022D0
:10073A0020031AAC33E4120237AB41AA40A93FA8FE
:10074A003E1201B460044002801BE48022E5397045
:10075A0006E53A7002D2013001123002047F0180AC
:10076A00027F008F467544017F018006E4F546F555
:10077A0044FF1208EB20030475450122E4F54522E3
:1009C000538E7F5389F0758A18758CFCC28DD28C3A
:0509D000D2A9D2AF2204
:03000B000204B636
:1004B600C0E0C0F0C083C082C0D075D000C000C00C
:1004C60001C002C003C004C005C006C0070536E56A
:1004D60036B40A037536000532E53270020531FF7F
:1004E600AE31BE0109BFF406753100753200053B19
:1004F600E53BB40803753B007429253BF8E6FD7C13
:10050600007421253BF8E6FB7A00AF3B12078A749C
:1005160044253BF8E6FD7C00AF3B1207CC30010AD0
:100526000543E543700A054280067542007543009F
:10053600E543B4880DE542B41308754200754300DF
:10054600C201053CE53CB46408753C00A202B392C6
:1005560002D007D006D005D004D003D002D001D0F7
:0C05660000D0D0D082D083D0F0D0E032A2
:0C09FC007F237E337DB6DDFEDEFCDFFADB
:010A080022CB
:100931001208071209FC12096F1209C07B007A0024
:1009410079381208701206711203C912073A80F53C
:1005FE00E4FFC2C4D2C2D2B5D2B420B3027F04206B
:10060E00B2027F0520B1027F0620B0027F07D2C45E
:10061E00C2C2D2B5D2B420B3027F0820B2027F0983
:10062E0020B1027F0A20B0027F0BD2C4D2C2C2B563
:10063E00D2B420B3027F0C20B2027F0D20B1027F14
:10064E000E20B0027F0FD2C4D2C2D2B5C2B420B334
:10065E00027F1020B2027F1120B1027F1220B00261
:02066E007F13F8
:010670002267
:10070E000D08C0F9A4B0999282F88090FFC1BF087D
:09071E00150102040810204080BE
:10078A007580FFE5A0541F44E0F5A053A01F74151F
:10079A002FF8E6F580E5A0541F44C0F5A053A01F2A
:1007AA00EB4A600B74082DF8E6547FF580800774D5
:1007BA00082DF8E6F580E5A0541F44E0F5A053A003
:0207CA001F22EC
:10096F007580FFE5A0541F4480F5A053A01FE4F548
:0D097F0080E5A0541F44A0F5A053A01F2246
:10072700014D00014EFF014F000150FF0151000133
:0207370052FF6F
:1007CC00ED4C600F7401A807088002C333D8FC42BB
:1007DC004D800E7401A807088002C333D8FCF45274
:1007EC004DE54D654E6013E54DF4F580E5A0541FC5
:0A07FC004480F5A053A01F854D4E68
:0108060022CF
:1008C600EF6005434F408003534FBFE54F655060CF
:1008D60013E54FF4F580E5A0541F44A0F5A053A0FE
:0408E6001F854F50CB
:0108EA0022EB
:1008EB00EF600543511080035351EFE551655260A2
:1008FB0013E551F4F580E5A0541F44A0F5A053A0D7
:04090B001F855152A1
:01090F0022C5
:1009E900E4FEC297EF1392A3EFC313FFD2970EBE93
:0209F90008F004
:0109FB0022D9
:1009D500C29300C29700D293001209E9AF0512092C
:0409E500E9C29322AE
:10083C00E4FDC29300C29700D293001209E9E4FFD1
:10084C00C297EDC313FD30A303430580D2970FBFAE
:10085C0008EEC29300C29700D29700C2A300D2A3A5
:03086C0000AF05D5
:01086F002266
:10087000E4FD7F8E1209D51202ECFD7F841209D5AA
:10088000900001120305FD7F821209D5900002122B
:0F0890000305FD7F801209D57D807F8E0209D57B
:100910007F8512083CEF1203327F8312083C90005F
:1009200001EF1203447F8112083C900002EF0203A2
:010930004482
:04098C007F057E0065
:10099000EF1FAA0670011E4A600BE4FDEDC3940C24
:0509A00050EE0D80F790
:0109A500222F
:02095100A907F4
:10095300E4FBC294E913929412098CD294E9C31371
:0C096300F90BBB08ED7F057E0002099037
:1009A600E4FBC294ECC313FCD2943094034304805A
:0909B60012098C0BBB08EBAF0425
:0109BF002215
:10089F00C204D2947F0C7E00120990C2947F507EC6
:1008AF0000120990D2947F0A7E00120990A29492AE
:0608BF000412098CA204E2
:0108C5002210
:1008070012089F7FCC1209517F4412095112089F89
:100817007FCC1209517FBE1209511209A6A90712EE
:1008270009A6EFAD01FCE4120232E4FBFA79807805
:040837004112011752
:01083B00229A
:10000E00EC4D6011E8497017ED33EC3304600DE4EC
:10001E00FCFFFEFD22E933E8330470F80202D7122A
:10002E0002A258046009E4CC24815006285009022B
:10003E0002E12840030202DEC0E0EB4A7044B980C0
:10004E0006D0E0FB0202CDEF4E701CBD8008EBFF28
:10005E00EAFEE9FD80EBE98DF0A4FEE5F00200F783
:10006E00E9CDF9EAFEEBFFEF89F0A4FCE5F0CE89CD
:10007E00F0A42EFFE435F0CD89F0A42DFEE435F08A
:10008E008067EF4E7005BD80D780C3EF8BF0A4ACB8
:10009E00F0EE8BF0A42CFCE435F0F8EF8AF0A42CF3
:1000AE00E5F038FCE433CB8DF0A42CFCE5F03BF806
:1000BE00EE8AF0A42CFCE5F038F8E433CF89F0A4F6
:1000CE002CFCE5F038CF3400CE89F0A42FFFE5F0FC
:1000DE003EFEE433C98DF0A42EFEE5F039CD8AF054
:1000EE00A42FFFE5F03EFEE43DFD33D0E0FB5007CC
:1000FE000BBB000F0202E1EC2CFCEF33FFEE33FEE4
:06010E00ED33FD0202B911
:100114000202E1EC5D046005E8590470030202D7B1
:100124001202A2580460F6EC4860F2EC7004FDFE82
:10013400FF22C860DB2481C85009C39860025006BE
:100144000202DE9850CAF582E9294B4A7005AB8257
:100154000202CD75F0007C1A7880C3EF9BEE9AED15
:1001640099400DC3EF9BFFEE9AFEED99FDE842F036
:10017400DC23ACF0D0E0FFD0E0FED0E0FDAB822089
:10018400E7101BEB60BAEC2CFCEF33FFEE33FEED13
:1001940033FD0202B9E803F830E705C0F075F0005A
:1001A400EF2FFFEE33FEED33FD40B830E7C280AAF7
:1001B40074F8CC6480CCC86480C8F58204604FC3F2
:1001C400EB9FF5F0EA9E42F0E99D42F0E89C45F091
:1001D400603C501DE5825FFFE582D313CB5BCBF41B
:1001E4002B5582FB50280ABA002409B90020088044
:1001F4001DE5825BFBE582D313CF5FCFF4C3132FDE
:100204005582FF50090EBE00050DBD00010CC3EB65
:100214009FF5F0EA9E42F0E99D42F0E89C45F060CB
:0902240007CC4820E701B3EC22ED
:10022D0075F020800E75F010800575F0087D007E4C
:10023D00007F003392D530D5031203BBEC33401051
:10024D00EF33FFEE33FEED33FDEC33FCD5F0ED2255
:0E025D00E5F0247EA2D513CC92E7CDCEFF2291
:10026B00EDD2E7CD33EC3392D524814006E4FFFE8B
:10027B00FDFC22FCE4CFCECDCC24E0501174FF80EA
:10028B00EDC3CC13CCCD13CDCE13CECF13CF047087
:07029B00F030D5DE0203BBC9
:1002A200E9D2E7C933E833F892D5EDD2E7CD33ECA2
:0702B20033FC5002B2D5221B
:1002B900EC30E7100FBF000C0EBE00080DBD0004A6
:1002C9000BEB6014A2D5EB13FCED92E7FD2274FF52
:1002D900FCFDFEFF22E480F8A2D574FF13FC7D80AB
:0302E900E480EFBF
:0300000002057284
:0C057200787FE4F6D8FD7581520205B9CF
:1002EC00BB010689828A83E0225002E722BBFE0210
:0902FC00E32289828A83E4932243
:10030500BB010CE58229F582E5833AF583E02250AD
:1003150006E92582F8E622BBFE06E92582F8E222F7
:0D032500E58229F582E5833AF583E4932211
:10033200BB010689828A83F0225002F722BBFE01AA
:02034200F322A4
:10034400F8BB010DE58229F582E5833AF583E8F0EF
:10035400225006E92582C8F622BBFE05E92582C89B
:02036400F22283
:10036600BC000BBE0029EF8DF084FFADF022E4CC7B
:10037600F875F008EF2FFFEE33FEEC33FCEE9DEC44
:10038600984005FCEE9DFE0FD5F0E9E4CEFD22ED8A
:10039600F8F5F0EE8420D21CFEADF075F008EF2FD4
:1003A600FFED33FD4007985006D5F0F222C398FDC5
:0503B6000FD5F0EA2262
:0E03BB00C3E49FFFE49EFEE49DFDE49CFC2253
:10057E00020931E493A3F8E493A34003F68001F259
:10058E0008DFF48029E493A3F85407240CC8C3337E
:10059E00C4540F4420C8834004F456800146F6DF4D
:1005AE00E4800B01020408102040809006E2E47EF5
:1005BE00019360BCA3FF543F30E509541FFEE49342
:1005CE00A360010ECF54C025E060A840B8E493A309
:1005DE00FAE493A3F8E493A3C8C582C8CAC583CA34
:1005EE00F0A3C8C582C8CAC583CADFE9DEE780BEEC
:0107390000BF
:00000001FF
