:1003DC00082D0A0A0A0A0A0A0A0A0825000000005F
:1003EC0000000000083D0000000000000000022397
:0803FC001E1402211E14C18130
:10017B00E539600302020675390112066E8F3AE506
:10018B0038653AFF553AF537E53AF45FF53C853A71
:10019B0038E53724FB602E14603414604824037058
:1001AB005AA202B39202300209D201852123852281
:1001BB002422E523C395244009C2008523218524ED
:1001CB002222D20022300233A201B392012230024A
:1001DB002AA201E433FF2423F806E6B4641D74233A
:1001EB002FF8766322300213A201E433FF2423F8A5
:0C01FB0016E6B4FF0674232FF8E4F62289
:10031B00E5364535705A7535007536011204AD1248
:10032B0000EC8F4520021A752D0B75300A75310ABA
:10033B00E54575F00A8475F00A8485F033E5458050
:10034B0028752D0CE52375F00A8475F00A8485F069
:10035B0030E52375F00A8485F031E52475F00A84C5
:10036B0075F00A8485F033E52475F00A8485F03442
:01037B00225F
:10037C00E4F51DE545D3952140047F0180027F0003
:10038C008F3DE545D39521500BE545C3952240049F
:10039C007F0180027F008F3EE545D3952250047F7C
:1003AC000180027F008F3FA200E433F540E4F51D8D
:1003BC00743D251DF8E6B4010DC37404951D75F04C
:0F03CC0033A4FF0205F1051DE51DC3940340E1B5
:0103DB0022FF
:10068500538E7F5389F0758A18758CFCC28DD28C78
:05069500D2A9D2AF2242
:03000B000202935B
:10029300C0E0C0F0C083C082C0D075D000C000C031
:1002A30001C002C003C004C005C006C0070539E58C
:1002B30039B40A037539000536E53670020535FF92
:1002C300AE35BE0109BFF406753500753600053B32
:1002D300E53BB40803753B00742D253BF8E6FD7C34
:1002E300007425253BF8E6FB7A00AF3B120430741B
:1002F3003D253BF8E6FD7C00AF3B120472D007D0EE
:1003030006D005D004D003D002D001D000D0D0D085
:0803130082D083D0F0D0E0326B
:0C06BE007F237E337DB6DDFEDEFCDFFA1C
:0106CA00220D
:100657001204AD1206BE12059D12068512017B1209
:07066700031B12037C80F568
:10066E00E4FF20B3027F0420B2027F0520B1027F97
:06067E000620B0027F0718
:010684002253
:100404000D08C0F9A4B0999282F88090FFC68C08B8
:09041400150102040810204080CB
:100430007580FFE5A0541F44E0F5A053A01F74157C
:100440002FF8E6F580E5A0541F44C0F5A053A01F87
:10045000EB4A600B74082DF8E6547FF58080077432
:10046000082DF8E6F580E5A0541F44E0F5A053A060
:020470001F2249
:10059D007580FFE5A0541F4480F5A053A01FE4F51E
:0D05AD0080E5A0541F44A0F5A053A01F221C
:10041D000146000147FF0148000149FF014A000163
:02042D004BFF83
:10047200ED4C600F7401A807088002C333D8FC4218
:1004820046800E7401A807088002C333D8FCF452D8
:1004920046E54665476013E546F4F580E5A0541F3E
:0A04A2004480F5A053A01F854647D3
:0104AC00222D
:10053500EF600543484080035348BFE5486549607F
:1005450013E548F4F580E5A0541F44A0F5A053A099
:040555001F8548496D
:01055900227F
:10055A00EF6005434A108003534AEFE54A654B6052
:10056A0013E54AF4F580E5A0541F44A0F5A053A072
:04057A001F854A4B44
:01057E00225A
:0405D700D2A07F0A25
:1005DB00000000000000000000000000000000AE62
:0605EB00071FEE70EB2279
:0F06AF00D2A11205D7C2A17F0A1205DBC2A02279
:0C06CB00C2A11205D7D2A17F0A0205DBF4
:0204E200AD0764
:1004E400E4FCC2A07F0A1205DBED30E704D2A18050
:1004F40002C2A17F0A1205DBD2A0ED25E0FD7F0A2E
:090504001205DB0CBC08DBC2A0EF
:01050D0022CB
:1005BA00E4FC1205D7ED25E0FD30A103430501C295
:0C05CA00A07F0A1205DB0CBC08E8AF059E
:0105D6002202
:03069A001204E265
:10069D001205D7A2A1E433FDC2A07F0A1205DBAF7C
:0106AD000547
:0106AE002229
:10063F00C2A0EF24FF92A17F0A1205DB1205D7C2D9
:08064F00A0D2A17F0A0205DB25
:1005F100AB071206AF7F9012069A7F4112069AAF9F
:0A060100031204E212069D0206CB6C
:04060B007F057E00E9
:10060F00EF1FAA0670011E4A600BE4FDEDC3940CA8
:05061F0050EE0D80F714
:0106240022B3
:02057F00A907CA
:10058100E4FBC294E913929412060BD294E9C313CB
:0C059100F90BBB08ED7F057E0002060F91
:10062500E4FBC294ECC313FCD294309403430480DE
:0906350012060B0BBB08EBAF042D
:01063E002299
:10050E00C203D2947F0C7E0012060FC2947F507EDF
:10051E000012060FD2947F0A7E0012060FA294924A
:06052E000312060BA203FC
:0105340022A4
:1004AD0012050E7FCC12057F7F4412057F12050EBB
:1004BD007FCC12057F7FBE12057F120625A907127C
:1004CD000625EFAD01FCE41200B3E4FBFA79807868
:0404DD0041120011B7
:0104E10022F8
:10000E00020162EC5D046005E859047003020158B8
:10001E00120123580460F6EC4860F2EC7004FDFE09
:10002E00FF22C860DB2481C85009C39860025006C5
:10003E0002015F9850CAF582E9294B4A7005AB82DE
:10004E0002014E75F0007C1A7880C3EF9BEE9AED9C
:10005E0099400DC3EF9BFFEE9AFEED99FDE842F03D
:10006E00DC23ACF0D0E0FFD0E0FED0E0FDAB822090
:10007E00E7101BEB60BAEC2CFCEF33FFEE33FEED1A
:10008E0033FD02013AE803F830E705C0F075F000E1
:10009E00EF2FFFEE33FEED33FD40B830E7C280AAFE
:1000AE0075F020800E75F010800575F0087D007ECD
:1000BE00007F003392D530D50312016DEC33401022
:1000CE00EF33FFEE33FEED33FDEC33FCD5F0ED22D6
:0E00DE00E5F0247EA2D513CC92E7CDCEFF2212
:1000EC00EDD2E7CD33EC3392D524814006E4FFFE0C
:1000FC00FDFC22FCE4CFCECDCC24E0501174FF806B
:10010C00EDC3CC13CCCD13CDCE13CECF13CF047007
:07011C00F030D5DE02016D99
:10012300E9D2E7C933E833F892D5EDD2E7CD33EC22
:0701330033FC5002B2D5229B
:10013A00EC30E7100FBF000C0EBE00080DBD000426
:10014A000BEB6014A2D5EB13FCED92E7FD2274FFD2
:10015A00FCFDFEFF22E480F8A2D574FF13FC7D802B
:03016A00E480EF3F
:03000000020207F2
:0C020700787FE4F6D8FD75814B02024EB2
:0E016D00C3E49FFFE49EFEE49DFDE49CFC22A3
:10021300020657E493A3F8E493A34003F68001F2A4
:1002230008DFF48029E493A3F85407240CC8C333EC
:10023300C4540F4420C8834004F456800146F6DFBB
:10024300E4800B01020408102040809003DCE47E6C
:10025300019360BCA3FF543F30E509541FFEE493B0
:10026300A360010ECF54C025E060A840B8E493A377
:10027300FAE493A3F8E493A3C8C582C8CAC583CAA2
:10028300F0A3C8C582C8CAC583CADFE9DEE780BE5A
:01042F0000CC
:00000001FF
