:100D1E00082D0A0A0A0A0A0A0A0A08250000000013
:100D2E000000000008530000000000000000033D1A
:0B0D3E0023595501411E014200C182F3
:100AA600E5376003020B79753701120CAB8F38E519
:100AB600366538FF5538F535E538F45FF543853842
:100AC60036E55BB4010CE54DB40207E535B4090221
:100AD600D201D3900001E094D0900000E09407404A
:100AE60043E543B4093EE4F542F0A3F0C2019000A9
:100AF6002F1204F300000000E4F54CF54BF54AF51F
:100B060049F53CF53BF53AF53990005B1204F300E4
:100B1600000000E4F55FF55EF55DF55CF547F5462A
:100B2600F545F544E53524FB601924FD602614607F
:100B3600332405703E055BE55BB40303E4F55B8592
:100B46005B6022E55B6401702A054DE54D64037028
:100B560022F54D22E55BB4021A0541E541B4631363
:100B6600E4F54122E55BB4020A1541E541B4FF0311
:040B76007541632240
:0C10D4007F897ECB7DE8DDFEDEFCDFFACC
:0110E00022ED
:10052400900004E07002A3E060030209BB900004A1
:10053400E4F0A304F07B007A00793D120F7D7F0183
:10054400120F588F48E548D39464404EAF47AE46E7
:10055400AD45AC44AB5FAA5EA95DA85C1202BC6069
:1005640002500C85475F85465E85455D85445CAFDA
:100574003CAE3BAD3AAC39AB4CAA4BA94AA84912A4
:1005840002BC6002500C853C4C853B4B853A4A8545
:10059400394985605BD202020780E548C394644010
:1005A40003020780200203020780120DF78F478E93
:1005B400468D458C44AB5FAA5EA95DA85C1202BC63
:1005C4006002500C85475F85465E85455D85445CC9
:1005D400AF3CAE3BAD3AAC39AB4CAA4BA94AA849A7
:1005E4001202BC6002500C853C4C853B4B853A4A58
:1005F400853949E542701CAF47AE46AD45AC4490E1
:10060400005B1204E7AF3CAE3BAD3AAC3990002F2F
:100614001204E7900002E0FAA3E0FBD394C8EA9442
:1006240000500FC200E4F53CF53B753A20753941A2
:100634008049C3EB94D0EA9407400FC200E4F53C30
:10064400F53B753AB47539428031D200900003E02D
:100654002438FD900002E034FFFCE412033A7B618D
:100664007A0B7936783D120116E4FBFA7920784149
:100674001200258F3C8E3B8D3A8C39C202AF47AEB7
:1006840046AD45AC44E54225E025E02433F582E45B
:100694003400F5831204E7AF3CAE3BAD3AAC39E528
:1006A4004225E025E02406F582E43400F5831204B3
:1006B400E70542755B03E4F524F523F522F521F5FE
:1006C40052F551F550F54FF54EE54EC395424003B2
:1006D400020780AF24AE23AD22AC21E54E25E025F0
:1006E400E02433F582E43400F583E0F8A3E0F9A3D1
:1006F400E0FAA3E0FB1200258F248E238D228C21A7
:10070400AF52AE51AD50AC4FE54E25E025E0240686
:10071400F582E43400F583E0F8A3E0F9A3E0FAA35A
:10072400E0FB1200258F528E518D508C4FE54E24E4
:1007340001FDE433FCE412033AA804A905AA06ABBC
:1007440007AF24AE23AD22AC2112021F90005B122E
:1007540004E7E54E2401FDE433FCE412033AA80463
:10076400A905AA06AB07AF52AE51AD50AC4F120269
:100774001F90002F1204E7054E0206CDE55B1460BE
:100784004714700302091F14700302095024036004
:10079400030209BBE4F555755301E53DC4540FF557
:1007A4002DE53D540FF52E752F0BE53EC4540FF582
:1007B40030E53E540FF53175320BE53FC4540FF567
:1007C40033E53F540FF53422E4F555F553755401E0
:1007D400E54D14606D1470030208D3240260030213
:1007E40009BB752D0C752E0AE54270030208BFAFD4
:1007F4005FAE5EAD5DAC5C120373EF75F00A847599
:10080400F00A8485F02FEF75F00A8485F030753195
:100814000B90005BE0FCA3E0FDA3E0FEA3E0FF126D
:100824000373EF75F00A8475F00A8485F032EF756E
:10083400F00A8485F033E4FFFE7D207C4190005B68
:10084400805B752D0D752E0AE542606FAF4CAE4B83
:10085400AD4AAC49120373EF75F00A8475F00A844B
:1008640085F02FEF75F00A8485F03075310B900018
:100874002FE0FCA3E0FDA3E0FEA3E0FF120373EF6F
:1008840075F00A8475F00A8485F032EF75F00A84F5
:1008940085F033E4FFFE7D207C4190002FE0F8A337
:1008A400E0F9A3E0FAA3E0FB1201161203737C0043
:1008B4007D0A12046E8D34752B012275340A75334A
:1008C4000A75320A75310A75300A752F0A807975EE
:1008D4002D0EE54275F00A8475F00A8485F02EE544
:1008E4004275F00A8485F02FE542601FE53DC4544B
:1008F4000FF530E53D540FF53175320BE53EC45428
:100904000FF533E53E540FF534803D75340A7533E5
:100914000A75320A75310A75300A22E4F555F55420
:10092400752D0F752E0A752F0A75300A75310A75E3
:10093400320AE54175F00A8475F00A8485F033E5DE
:100944004175F00A8485F034E4F52B22E4F52BF5A7
:1009540053F554755501752D10752E0A752F0AAF70
:1009640047AE46AD45AC44120373EF75F00A847587
:10097400F00A8485F030EF75F00A8485F031753221
:100984000B300024E4F557AF3CAE3BAD3AAC391222
:100994000373EF75F00A8475F00A8485F033EF75FC
:1009A400F00A8485F034800C2000097557017534F1
:0809B400117533111210D42259
:100B7A00AC41E412033FAB47AA46A945A844120276
:100B8A00BC600D400B3004047F0180027F008F5649
:100B9A00E542C39402407AE54225E025E0242FF598
:100BAA0082E43400F583E0FCA3E0FDA3E0FEA3E0C9
:100BBA00FFE54225E025E02433F582E43400F5839D
:100BCA00E0F8A3E0F9A3E0FAA3E0FB1202BC60415B
:100BDA00403FE54225E025E02402F582E43400F5B1
:100BEA0083E0FCA3E0FDA3E0FEA3E0FFE54225E0ED
:100BFA0025E02406F582E43400F583E0F8A3E0F961
:100C0A00A3E0FAA3E0FB1202BC6006400475580197
:050C1A0022E4F5582260
:10109F00538E7F5389F0438905E4F58AF58CC28D11
:0310AF00D28C22BE
:10106100538EBF53890F758B18758DFCC28FD28E2D
:05107100D2ABD2AF225A
:03001B000209BC1B
:1009BC00C0E0C0F0C083C082C0D075D000C000C001
:1009CC0001C002C003C004C005C006C0070537E55E
:1009DC0037B40A03753700900004E475F001120473
:1009EC00C3AFF0FEBE010ABFF407900004E4F0A30D
:1009FC00F00540E540B40803754000742D2540F81F
:100A0C00E6FD7C0074252540F8E6FB7A00AF401229
:100A1C000D7A74532540F8E6FD7C00AF40120DBCF6
:100A2C0090005FE475F0011204C3AFF0FEBE031F2B
:100A3C00BFE81C90005FE4F0A3F0AF8CEFFFAD8A31
:100A4C00ED900002CFF0A3EFF0758C00758A0030AA
:100A5C00011D900000E475F0011204C3AFF0FEBE5E
:100A6C00080DBF340A9000007408F0A37434F090A1
:100A7C00002EE004F0B46407E4F0A204B39204D0B6
:100A8C0007D006D005D004D003D002D001D000D0BE
:0A0A9C00D0D082D083D0F0D0E03239
:0B10E1007F337EB6DEFEDFFCD50EF98B
:0110EC0022E1
:100E8F00120DF71210E17B007A00793D120E607B94
:100E9F00007A00793D120F7D120FBC12109F1210B5
:0C0EAF0061120AA6120524120B7A80F5CD
:100CAB00E4FFC2C4D2C2D2B5D2B420B3027F0420B7
:100CBB00B2027F0520B1027F0620B0027F07D2C4AB
:100CCB00C2C2D2B5D2B420B3027F0820B2027F09D0
:100CDB0020B1027F0A20B0027F0BD2C4D2C2C2B5B0
:100CEB00D2B420B3027F0C20B2027F0D20B1027F61
:100CFB000E20B0027F0FD2C4D2C2D2B5C2B420B381
:100D0B00027F1020B2027F1120B1027F1220B002AD
:020D1B007F1344
:010D1D0022B3
:100D49001261C0F9A4B0999282F88090FFBFC68958
:0E0D59008E8C868808730102040810204080EA
:100D7A007580FFE5A0541F44E0F5A053A01F7473CB
:100D8A002FF8E6F580E5A0541F44C0F5A053A01F34
:100D9A00EB4A600B74612DF8E6547FF58080077486
:100DAA00612DF8E6F580E5A0541F44E0F5A053A0B4
:020DBA001F22F6
:100FBC007580FFE5A0541F4480F5A053A01FE4F5F5
:0D0FCC0080E5A0541F44A0F5A053A01F22F3
:100D67000108000109FF010A00010BFF010C000146
:020D77000DFF6E
:100DBC00ED4C600F7401A807088002C333D8FC42C5
:100DCC0008800E7401A807088002C333D8FCF452C3
:100DDC0008E50865096013E508F4F580E5A0541FE3
:0A0DEC004480F5A053A01F850809FC
:010DF60022DA
:100F0E00EF6005430A408003530ABFE50A650B6094
:100F1E0013E50AF4F580E5A0541F44A0F5A053A0F4
:040F2E001F850A0B06
:010F3200229C
:100F3300EF6005430C108003530CEFE50C650D6067
:100F430013E50CF4F580E5A0541F44A0F5A053A0CD
:040F53001F850C0DDD
:010F57002277
:1010B200E4FEC297EF1392A3EFC313FFD2970EBEC3
:0210C20008F034
:0110C4002209
:10108B00C29300C29700D293001210B2AF05121098
:04109B00B2C2932228
:100E2C00E4FDC29300C29700D293001210B2E4FF0B
:100E3C00C297EDC313FD30A303430580D2970FBFB8
:100E4C0008EEC29300C29700D29700C2A300D2A3AF
:030E5C0000AF05DF
:010E5F002270
:100E6000E4FD7F8E12108B1203F4FD7F8412108B31
:100E700090000112040DFD7F8212108B900002126F
:0F0E8000040DFD7F8012108B7D807F8E02108B02
:100F7D007F85120E2CEF12043A7F83120E2C9000F7
:100F8D0001EF12044C7F81120E2C900002EF02042F
:010F9D004C07
:04101300D2A07F0ADE
:10101700000000000000000000000000000000AE1B
:06102700071FEE70EB2232
:0F10C500D2A1121013C2A17F0A121017C2A022CB
:0C10ED00C2A1121013D2A17F0A0210173A
:020EBB00AD0781
:100EBD00E4FCC2A07F0A121017ED30E704D2A18026
:100ECD0002C2A17F0A121017D2A0ED25E0FD7F0A04
:090EDD001210170CBC08DBC2A0C6
:010EE60022E9
:100FD900E4FC121013ED25E0FD30A103430501C225
:0C0FE900A07F0A1210170CBC08E8AF052E
:010FF50022D9
:0B0FF600120EBB121001AF03120EBB65
:10100100121013A2A1E433FDC2A07F0A121017AF80
:0110110005D9
:0110120022BB
:10000300C2A0EF24FF92A17F0A121017121013C28D
:08001300A0D2A17F0A02101720
:020F5800AB07E5
:100F5A001210C57F90120FF61210C57F91120EBBA8
:100F6A00121001120FD9AD077F011200031210ED02
:020F7A00AF05C1
:010F7C002252
:10107600AB071210C57F90120EBB1210017F4112F2
:051086000FF60210ED61
:04102D007F057E00BD
:10103100EF1FAA0670011E4A600BE4FDEDC3940C7C
:0510410050EE0D80F7E8
:011046002287
:020F9E00A907A1
:100FA000E4FBC294E913929412102DD294E9C31376
:0C0FB000F90BBB08ED7F057E000210313C
:10104700E4FBC294ECC313FCD294309403430480B2
:0910570012102D0BBB08EBAF04D5
:01106000226D
:100EE700C205D2947F0C7E00121031C2947F507ECF
:100EF70000121031D2947F0A7E00121031A2949210
:060F07000512102DA205E9
:010F0D0022C1
:100DF700120EE77FCC120F9E7F44120F9E120EE752
:100E07007FCC120F9E7FBE120F9E121047A90712AA
:100E17001047EFAD01FCE412033AE4FBFA7980785E
:040E27004112021F53
:010E2B0022A4
:10001E000203DFE86480F8E933E83360110460F02E
:10002E00ED33EC337009E8FCE9FDEAFEEBFF220448
:10003E0060DED3EB9FEA9EE99DE8C2E78CF0C2F743
:10004E0095F0400CE8CCF8E9CDF9EACEFAEBCFFB0F
:10005E001203AA85D0F05804700320D5B3E80470BB
:10006E00075002B2D50203E992D5EC0460F7E4CC56
:10007E00C0E0C398F8603B94186008400DD0E0FBD8
:10008E000203C1E4FBFAC9FC8028E830E406E4C9A7
:10009E00FBE4CAFCE830E305E4C9CACBFCE854072C
:1000AE006010F8C3E913F9EA13FAEB13FBEC13FC37
:1000BE00D8F130F52FC3E49CFCEF9BFFEE9AFEEDDA
:1000CE0099FDD0E0FBEF4E4D4C701222DB03020384
:1000DE00E6EC2CFCEF33FFEE33FEED33FDED30E7B7
:1000EE00EB0203C1EF2BFFEE3AFEED39FDD0E0FB44
:1000FE0050130BBB00030203E9ED13FDEE13FEEFED
:08010E0013FFEC13FC0203C116
:10011600EC4D6011E8497017ED33EC3304600DE4E3
:10012600FCFFFEFD22E933E8330470F80203DF1218
:1001360003AA58046009E4CC248150062850090219
:1001460003E92840030203E6C0E0EB4A7044B980A5
:1001560006D0E0FB0203D5EF4E701CBD8008EBFF16
:10016600EAFEE9FD80EBE98DF0A4FEE5F00201FF71
:10017600E9CDF9EAFEEBFFEF89F0A4FCE5F0CE89C4
:10018600F0A42EFFE435F0CD89F0A42DFEE435F081
:100196008067EF4E7005BD80D780C3EF8BF0A4ACAF
:1001A600F0EE8BF0A42CFCE435F0F8EF8AF0A42CEA
:1001B600E5F038FCE433CB8DF0A42CFCE5F03BF8FD
:1001C600EE8AF0A42CFCE5F038F8E433CF89F0A4ED
:1001D6002CFCE5F038CF3400CE89F0A42FFFE5F0F3
:1001E6003EFEE433C98DF0A42EFEE5F039CD8AF04B
:1001F600A42FFFE5F03EFEE43DFD33D0E0FB5007C3
:100206000BBB000F0203E9EC2CFCEF33FFEE33FED1
:06021600ED33FD0203C1FF
:10021C000203E9EC5D046005E8590470030203DF96
:10022C001203AA580460F6EC4860F2EC7004FDFE70
:10023C00FF22C860DB2481C85009C39860025006B5
:10024C000203E69850CAF582E9294B4A7005AB8245
:10025C000203D575F0007C1A7880C3EF9BEE9AED03
:10026C0099400DC3EF9BFFEE9AFEED99FDE842F02D
:10027C00DC23ACF0D0E0FFD0E0FED0E0FDAB822080
:10028C00E7101BEB60BAEC2CFCEF33FFEE33FEED0A
:10029C0033FD0203C1E803F830E705C0F075F00048
:1002AC00EF2FFFEE33FEED33FD40B830E7C280AAEE
:1002BC0074F8CC6480CCC86480C8F58204604FC3E9
:1002CC00EB9FF5F0EA9E42F0E99D42F0E89C45F088
:1002DC00603C501DE5825FFFE582D313CB5BCBF412
:1002EC002B5582FB50280ABA002409B9002008803B
:1002FC001DE5825BFBE582D313CF5FCFF4C3132FD5
:10030C005582FF50090EBE00050DBD00010CC3EB5C
:10031C009FF5F0EA9E42F0E99D42F0E89C45F060C2
:09032C0007CC4820E701B3EC22E4
:1003350075F020800E75F010800575F0087D007E43
:10034500007F003392D530D5031204D9EC33401029
:10035500EF33FFEE33FEED33FDEC33FCD5F0ED224C
:0E036500E5F0247EA2D513CC92E7CDCEFF2288
:10037300EDD2E7CD33EC3392D524814006E4FFFE82
:10038300FDFC22FCE4CFCECDCC24E0501174FF80E1
:10039300EDC3CC13CCCD13CDCE13CECF13CF04707E
:0703A300F030D5DE0204D9A1
:1003AA00E9D2E7C933E833F892D5EDD2E7CD33EC99
:0703BA0033FC5002B2D52212
:1003C100EC30E7100FBF000C0EBE00080DBD00049D
:1003D1000BEB6014A2D5EB13FCED92E7FD2274FF49
:1003E100FCFDFEFF22E480F8A2D574FF13FC7D80A2
:0303F100E480EFB6
:03000000020C1FD0
:0C0C1F00787FE4F6D8FD75817A020C663F
:1003F400BB010689828A83E0225002E722BBFE0207
:09040400E32289828A83E4932239
:10040D00BB010CE58229F582E5833AF583E02250A4
:10041D0006E92582F8E622BBFE06E92582F8E222EE
:0D042D00E58229F582E5833AF583E4932208
:10043A00BB010689828A83F0225002F722BBFE01A1
:02044A00F3229B
:10044C00F8BB010DE58229F582E5833AF583E8F0E6
:10045C00225006E92582C8F622BBFE05E92582C892
:02046C00F2227A
:10046E00BC000BBE0029EF8DF084FFADF022E4CC72
:10047E00F875F008EF2FFFEE33FEEC33FCEE9DEC3B
:10048E00984005FCEE9DFE0FD5F0E9E4CEFD22ED81
:10049E00F8F5F0EE8420D21CFEADF075F008EF2FCB
:1004AE00FFED33FD4007985006D5F0F222C398FDBC
:0504BE000FD5F0EA2259
:1004C300C5F0F8A3E028F0C5F0F8E58215827002C4
:0604D3001583E038F02261
:0E04D900C3E49FFFE49EFEE49DFDE49CFC2234
:0C04E700ECF0A3EDF0A3EEF0A3EFF02288
:1004F300A8828583F0D083D08212050A12050A12DE
:10050300050A12050AE473E493A3C583C5F0C58302
:10051300C8C582C8F0A3C583C5F0C583C8C582C852
:0105230022B5
:100C2B00020E8FE493A3F8E493A34003F68001F242
:100C3B0008DFF48029E493A3F85407240CC8C333CA
:100C4B00C4540F4420C8834004F456800146F6DF99
:100C5B00E4800B0102040810204080900D1EE47EFE
:100C6B00019360BCA3FF543F30E509541FFEE4938E
:100C7B00A360010ECF54C025E060A840B8E493A355
:100C8B00FAE493A3F8E493A3C8C582C8CAC583CA80
:100C9B00F0A3C8C582C8CAC583CADFE9DEE780BE38
:010D79000079
:00000001FF
