:0401B7007F057E0042
:1001BB00EF1FAA0670011E4A600BE4FDEDC3940C01
:0501CB0050EE0D80F76D
:0101D000220C
:02019900A907B4
:10019B00E4FBC294E91392941201B7D294E9C3130E
:0C01AB00F90BBB08ED7F057E000201BBD4
:1001D100E4FBC294ECC313FCD29430940343048037
:0901E1001201B70BBB08EBAF04DF
:0101EA0022F2
:10017200C200D2947F0C7E001201BBC2947F507EDB
:10018200001201BBD2947F0A7E001201BBA294929C
:06019200001201B7A200FB
:010198002244
:100136001201727FCC1201997F4412019912017249
:100146007FC87E001201BB7FCC1201997F8E1201FF
:10015600991201D1A9071201D1EFAD01FCE41200F9
:0B016600A5E4FBFA7980784112000349
:01017100226B
:1000000002011DEC5D046005E85904700302011350
:100010001200DE580460F6EC4860F2EC7004FDFE5D
:10002000FF22C860DB2481C85009C39860025006D3
:1000300002011A9850CAF582E9294B4A7005AB8231
:1000400002010975F0007C1A7880C3EF9BEE9AEDEF
:1000500099400DC3EF9BFFEE9AFEED99FDE842F04B
:10006000DC23ACF0D0E0FFD0E0FED0E0FDAB82209E
:10007000E7101BEB60BAEC2CFCEF33FFEE33FEED28
:1000800033FD0200F5E803F830E705C0F075F00035
:10009000EF2FFFEE33FEED33FD40B830E7C280AA0C
:1000A00075F020800E75F010800575F0087D007EDB
:1000B000007F003392D530D503120128EC33401075
:1000C000EF33FFEE33FEED33FDEC33FCD5F0ED22E4
:0E00D000E5F0247EA2D513CC92E7CDCEFF2220
:1000DE00E9D2E7C933E833F892D5EDD2E7CD33EC68
:0700EE0033FC5002B2D522E1
:1000F500EC30E7100FBF000C0EBE00080DBD00046C
:100105000BEB6014A2D5EB13FCED92E7FD2274FF17
:10011500FCFDFEFF22E480F8A2D574FF13FC7D8070
:03012500E480EF84
:0E012800C3E49FFFE49EFEE49DFDE49CFC22E8
:00000001FF
