:030000000201BE3C
:0C01BE00787FE4F6D8FD75814B02020545
:1003450008290A0A0A0A0A0A0A0A082100000000FE
:0E035500000000000839000000000000000059
:10061D00E535701A7535011202D28F36E53665341F
:0F062D00FF5536F533E536F45FF5388536342260
:0D076B00E53245317006753100753201220E
:0100030022DA
:1006FA00538E7F5389F0758A18758CFCC28DD28C03
:05070A00D2A9D2AF22CC
:03000B0002024AA4
:10024A00C0E0C0F0C083C082C0D075D000C000C07A
:10025A0001C002C003C004C005C006C0070535E5D9
:10026A0035B40A037535000532E53270020531FFEF
:10027A00AE31BE0109BFF40675310075320005378B
:10028A00E537B4080375370074292537F8E6FD7C8D
:10029A000074212537F8E6FB7A00AF3712038D7414
:1002AA00392537F8E6FD7C00AF37120411D007D0A4
:1002BA0006D005D004D003D002D001D000D0D0D0CF
:0802CA0082D083D0F0D0E032B5
:10074B001206FA12065A12061D12076B12000380CC
:01075B00F5A8
:1002D200E4FFC2C4D2C2D2B5D2B420B3027F04209A
:1002E200B2027F0520B1027F0620B0027F07D2C48E
:1002F200C2C2D2B5D2B420B3027F0820B2027F09B3
:1003020020B1027F0A20B0027F0BD2C4D2C2C2B592
:10031200D2B420B3027F0C20B2027F0D20B1027F43
:100322000E20B0027F0FD2C4D2C2D2B5C2B420B363
:10033200027F1020B2027F1120B1027F1220B00290
:020342007F1327
:010344002296
:100363000141000142FF0143000144FF0145000137
:0203730046FF43
:10041100ED4C600F7401A807088002C333D8FC4279
:1004210041800E7401A807088002C333D8FCF4523E
:1004310041E54165426013E541F4F580E5A0541FB3
:0A0441004480F5A053A01F8541423E
:01044B00228E
:10056900EF600543434080035343BFE5436544605F
:1005790013E543F4F580E5A0541F44A0F5A053A06A
:040589001F85434443
:01058D00224B
:10058E00EF600543454080035345BFE54565466032
:10059E0013E545F4F580E5A0541F44A0F5A053A043
:0405AE001F8545461A
:0105B2002226
:100375000B08C0F9A4B0999282F88090FF08130188
:070385000204081020408073
:10038D007580FFE5A0541F44E0F5A053A01F741322
:10039D002FF8E6F580E5A0541F44C0F5A053A01F2B
:1003AD00EB4A600B74082DF8E6447FF580800774E6
:1003BD00082DF8E6F580E5A0541F44E0F5A053A004
:0203CD001F22ED
:10065A007580FFE5A0541F4480F5A053A01FE4F560
:0D066A0080E5A0541F44A0F5A053A01F225E
:10073800E4FEC297EF1392A3EFC313FFD2970EBE46
:0207480008F0B7
:01074A00228C
:10072400C29300C29700D29300120738AF05120794
:0407340038C2932212
:10048100E4FDC29300C29700D29300120738E4FF43
:10049100C297EDC313FD30A303430580D2970FBF6D
:1004A10008EEC29300C29700D29700C2A300D2A364
:0304B10000AF0594
:0104B4002225
:1004E700E4FD7F8E120724120136FD7F8412072454
:1004F70090000112014FFD7F821207249000021223
:0F050700014FFD7F801207247D807F8E02072425
:1005FC007F85120481EF12017C7F831204819000AD
:10060C0001EF12018E7F81120481900002EF020132
:01061C008E4F
:040694007F057E0060
:10069800EF1FAA0670011E4A600BE4FDEDC3940C1F
:0506A80050EE0D80F78B
:0106AD00222A
:02063C00A9070C
:10063E00E4FBC294E9139294120694D294E9C31384
:0C064E00F90BBB08ED7F057E000206984A
:1006AE00E4FBC294ECC313FCD29430940343048055
:0906BE001206940BBB08EBAF041B
:0106C7002210
:10054200C200D2947F0C7E00120698C2947F507E25
:1005520000120698D2947F0A7E00120698A2949204
:0605620000120694A20045
:010568002270
:10044C001205427FCC12063C7F4412063C12054238
:10045C007FCC12063C7FBE12063C1206AEA90712D8
:10046C0006AEEFAD01FCE41200B3E4FBFA79807840
:04047C004112001118
:010480002259
:0406C800D2A07F0A33
:1006CC00000000000000000000000000000000AE70
:0606DC00071FEE70EB2287
:0F075C00D2A11206C8C2A17F0A1206CCC2A022E7
:0C077800C2A11206C8D2A17F0A0206CC62
:02051600AD072F
:10051800E4FCC2A07F0A1206CCED30E704D2A18029
:1005280002C2A17F0A1206CCD2A0ED25E0FD7F0A07
:090538001206CC0CBC08DBC2A0C9
:010541002297
:10067700E4FC1206C8ED25E0FD30A103430501C2E5
:0C068700A07F0A1206CC0CBC08E8AF05EE
:010693002244
:1005D800AB0512075C7FA01205161205EAAF0312DD
:0205E8000516F6
:1005EA001206C8A2A1E433FDC2A07F0A1206CCAF4C
:0105FA0005FB
:0105FB0022DD
:1006E200C2A0EF24FF92A17F0A1206CC1206C8C252
:0806F200A0D2A17F0A0206CC90
:0205B300AB0794
:1005B50012075C7F901205DF12075C7F911205160A
:1005C5001205EA120677AD077F011206E2120778D7
:0205D500AF0570
:0105D7002201
:10070F00AB0712075C7F901205161205EA7F4112A4
:05071F0005DF02077870
:1004B5008B1B8A1C891D1205D8AF1F151FEF601FE6
:1004C500AB1B051DE51DAA1C7002051C14F91201C4
:1004D50036FF1205161205EA7FC81206CC80DA022D
:0204E500077896
:1003CF008B478A4889491205D812075C7FA112050D
:1003DF00161205EAAF4B154BEF6024120677AB47A9
:1003EF000549E549AA487002054814F9EF12017C46
:1003FF00E54B6004E4FF80027F011206E280D50224
:02040F0007786C
:10000E0002012BEC5D046005E85904700302012126
:10001E001200EC580460F6EC4860F2EC7004FDFE41
:10002E00FF22C860DB2481C85009C39860025006C5
:10003E000201289850CAF582E9294B4A7005AB8215
:10004E0002011775F0007C1A7880C3EF9BEE9AEDD3
:10005E0099400DC3EF9BFFEE9AFEED99FDE842F03D
:10006E00DC23ACF0D0E0FFD0E0FED0E0FDAB822090
:10007E00E7101BEB60BAEC2CFCEF33FFEE33FEED1A
:10008E0033FD020103E803F830E705C0F075F00018
:10009E00EF2FFFEE33FEED33FD40B830E7C280AAFE
:1000AE0075F020800E75F010800575F0087D007ECD
:1000BE00007F003392D530D5031201B0EC334010DF
:1000CE00EF33FFEE33FEED33FDEC33FCD5F0ED22D6
:0E00DE00E5F0247EA2D513CC92E7CDCEFF2212
:1000EC00E9D2E7C933E833F892D5EDD2E7CD33EC5A
:0700FC0033FC5002B2D522D3
:10010300EC30E7100FBF000C0EBE00080DBD00045D
:100113000BEB6014A2D5EB13FCED92E7FD2274FF09
:10012300FCFDFEFF22E480F8A2D574FF13FC7D8062
:03013300E480EF76
:1001CA0002074BE493A3F8E493A34003F68001F2F9
:1001DA0008DFF48029E493A3F85407240CC8C33336
:1001EA00C4540F4420C8834004F456800146F6DF05
:1001FA00E4800B0102040810204080900345E47E4D
:10020A00019360BCA3FF543F30E509541FFEE493F9
:10021A00A360010ECF54C025E060A840B8E493A3C0
:10022A00FAE493A3F8E493A3C8C582C8CAC583CAEB
:10023A00F0A3C8C582C8CAC583CADFE9DEE780BEA3
:01038C000070
:10013600BB010689828A83E0225002E722BBFE02C7
:09014600E32289828A83E49322FA
:10014F00BB010CE58229F582E5833AF583E0225065
:10015F0006E92582F8E622BBFE06E92582F8E222AF
:0D016F00E58229F582E5833AF583E49322C9
:10017C00BB010689828A83F0225002F722BBFE0162
:02018C00F3225C
:10018E00F8BB010DE58229F582E5833AF583E8F0A7
:10019E00225006E92582C8F622BBFE05E92582C853
:0201AE00F2223B
:0E01B000C3E49FFFE49EFEE49DFDE49CFC2260
:00000001FF
