:10037C00082B0A0A0A0A0A0A0A0A082100000000C5
:0E038C0000000000083D00000000000000001E
:10065400E537701A7537011203098F38E5366538A6
:0F066400FF5538F535E538F45FF53A853836221D
:0D07A000E5344533700675330075340122D1
:0107B900221D
:10076B00538E7F5389F0438950E4F58AF58CC28D03
:03077B00D28C22FB
:10071900538EBF53890F758B18758DFCC28FD28E7E
:05072900D2ABD2AF22AB
:03001B000201CE11
:1001CE00C0E0C0F0C083C082C0D075D000C000C0F7
:1001DE0001C002C003C004C005C006C0070537E554
:1001EE0037B40A037537000534E53470020533FF62
:1001FE00AE33BE0109BFF406753300753400053900
:10020E00E539B40803753900742B2539F8E6FD7C01
:10021E000074212539F8E6FB7A00AF391203C47455
:10022E003D2539F8E6FD7C00AF39120448053CE562
:10023E003C7002053BFFAE3BBE0319BFE816753B93
:10024E0000753C00AF8CEFAD8AF529EDF52A758C63
:10025E0000758A00D007D006D005D004D003D00296
:0F026E00D001D000D0D0D082D083D0F0D0E032F9
:1007430012069112076B1207191206541207A01210
:0407530007B980F56D
:10030900E4FFC2C4D2C2D2B5D2B420B3027F042062
:10031900B2027F0520B1027F0620B0027F07D2C456
:10032900C2C2D2B5D2B420B3027F0820B2027F097B
:1003390020B1027F0A20B0027F0BD2C4D2C2C2B55B
:10034900D2B420B3027F0C20B2027F0D20B1027F0C
:100359000E20B0027F0FD2C4D2C2D2B5C2B420B32C
:10036900027F1020B2027F1120B1027F1220B00259
:020379007F13F0
:01037B00225F
:10039A000B08C0F9A4B0999282F88090FF08130163
:0703AA00020408102040804E
:1003C4007580FFE5A0541F44E0F5A053A01F7413EB
:1003D4002FF8E6F580E5A0541F44C0F5A053A01FF4
:1003E400EB4A600B74082DF8E6547FF5808007749F
:1003F400082DF8E6F580E5A0541F44E0F5A053A0CD
:020404001F22B5
:100691007580FFE5A0541F4480F5A053A01FE4F529
:0D06A10080E5A0541F44A0F5A053A01F2227
:1003B1000145000146FF0147000148FF01490001D5
:0203C1004AFFF1
:10044800ED4C600F7401A807088002C333D8FC4242
:1004580045800E7401A807088002C333D8FCF45203
:1004680045E54565466013E545F4F580E5A0541F6C
:0A0478004480F5A053A01F854546FF
:010482002257
:1005A000EF600543474080035347BFE54765486018
:1005B00013E547F4F580E5A0541F44A0F5A053A02F
:0405C0001F85474804
:0105C4002214
:1005C500EF600543491080035349EFE549654A60EB
:1005D50013E549F4F580E5A0541F44A0F5A053A008
:0405E5001F85494ADB
:0105E90022EF
:10077E00E4FEC297EF1392A3EFC313FFD2970EBE00
:02078E0008F071
:010790002246
:10075700C29300C29700D2930012077EAF0512071B
:040767007EC2932299
:1004B800E4FDC29300C29700D2930012077EE4FFC6
:1004C800C297EDC313FD30A303430580D2970FBF36
:1004D80008EEC29300C29700D29700C2A300D2A32D
:0304E80000AF055D
:0104EB0022EE
:10051E00E4FD7F8E120757120146FD7F84120757A6
:10052E0090000112015FFD7F8212075790000212A8
:0F053E00015FFD7F801207577D807F8E02075778
:100633007F851204B8EF12018C7F831204B89000F7
:1006430001EF12019E7F811204B8900002EF0201B4
:010653009E08
:0406CB007F057E0029
:1006CF00EF1FAA0670011E4A600BE4FDEDC3940CE8
:0506DF0050EE0D80F754
:0106E40022F3
:02067300A907D5
:10067500E4FBC294E91392941206CBD294E9C31316
:0C068500F90BBB08ED7F057E000206CFDC
:1006E500E4FBC294ECC313FCD2943094034304801E
:0906F5001206CB0BBB08EBAF04AD
:0106FE0022D9
:10057900C200D2947F0C7E001206CFC2947F507EB7
:10058900001206CFD2947F0A7E001206CFA294925F
:06059900001206CBA200D7
:01059F002239
:100483001205797FCC1206737F4412067312057925
:100493007FCC1206737FBE1206731206E5A90712FC
:1004A30006E5EFAD01FCE41200C3E4FBFA798078C2
:0404B30041120021D1
:0104B7002222
:0406FF00D2A07F0AFC
:10070300000000000000000000000000000000AE38
:06071300071FEE70EB224F
:0F079100D2A11206FFC2A17F0A120703C2A02243
:0C07AD00C2A11206FFD2A17F0A020703BE
:02054D00AD07F8
:10054F00E4FCC2A07F0A120703ED30E704D2A180BA
:10055F0002C2A17F0A120703D2A0ED25E0FD7F0A98
:09056F001207030CBC08DBC2A05A
:010578002260
:1006AE00E4FC1206FFED25E0FD30A103430501C277
:0C06BE00A07F0A1207030CBC08E8AF057F
:0106CA00220D
:10060F00AB051207917FA012054D120621AF031201
:02061F00054D87
:100621001206FFA2A1E433FDC2A07F0A120703AFA5
:0106310005C3
:0106320022A5
:10000300C2A0EF24FF92A17F0A1207031206FFC2C8
:08001300A0D2A17F0A0207033D
:0205EA00AB075D
:1005EC001207917F901206161207917F9112054DFA
:1005FC001206211206AEAD077F011200031207ADE1
:02060C00AF0538
:01060E0022C9
:10072E00AB071207917F9012054D1206217F4112E1
:05073E0006160207ADE4
:1004EC008B1B8A1C891D12060FAF1F151FEF601F77
:1004FC00AB1B051DE51DAA1C7002051C14F912018D
:10050C0046FF12054D1206217FC812070380DA023E
:02051C0007AD29
:100406008B4B8A4C894D12060F1207917FA112055C
:100416004D120621AF4F154FEF60241206AEAB4BBF
:10042600054DE54DAA4C7002054C14F9EF12018CEE
:10043600E54F6004E4FF80027F0112000380D502CD
:0204460007AD00
:10001E0002013BEC5D046005E859047003020131F6
:10002E001200FC580460F6EC4860F2EC7004FDFE21
:10003E00FF22C860DB2481C85009C39860025006B5
:10004E000201389850CAF582E9294B4A7005AB82F5
:10005E0002012775F0007C1A7880C3EF9BEE9AEDB3
:10006E0099400DC3EF9BFFEE9AFEED99FDE842F02D
:10007E00DC23ACF0D0E0FFD0E0FED0E0FDAB822080
:10008E00E7101BEB60BAEC2CFCEF33FFEE33FEED0A
:10009E0033FD020113E803F830E705C0F075F000F8
:1000AE00EF2FFFEE33FEED33FD40B830E7C280AAEE
:1000BE0075F020800E75F010800575F0087D007EBD
:1000CE00007F003392D530D5031201C0EC334010BF
:1000DE00EF33FFEE33FEED33FDEC33FCD5F0ED22C6
:0E00EE00E5F0247EA2D513CC92E7CDCEFF2202
:1000FC00E9D2E7C933E833F892D5EDD2E7CD33EC4A
:07010C0033FC5002B2D522C2
:10011300EC30E7100FBF000C0EBE00080DBD00044D
:100123000BEB6014A2D5EB13FCED92E7FD2274FFF9
:10013300FCFDFEFF22E480F8A2D574FF13FC7D8052
:03014300E480EF66
:0300000002027D7C
:0C027D00787FE4F6D8FD75814F0202C4C2
:10014600BB010689828A83E0225002E722BBFE02B7
:09015600E32289828A83E49322EA
:10015F00BB010CE58229F582E5833AF583E0225055
:10016F0006E92582F8E622BBFE06E92582F8E2229F
:0D017F00E58229F582E5833AF583E49322B9
:10018C00BB010689828A83F0225002F722BBFE0152
:02019C00F3224C
:10019E00F8BB010DE58229F582E5833AF583E8F097
:1001AE00225006E92582C8F622BBFE05E92582C843
:0201BE00F2222B
:0E01C000C3E49FFFE49EFEE49DFDE49CFC2250
:10028900020743E493A3F8E493A34003F68001F241
:1002990008DFF48029E493A3F85407240CC8C33376
:1002A900C4540F4420C8834004F456800146F6DF45
:1002B900E4800B010204081020408090037CE47E56
:1002C900019360BCA3FF543F30E509541FFEE4933A
:1002D900A360010ECF54C025E060A840B8E493A301
:1002E900FAE493A3F8E493A3C8C582C8CAC583CA2C
:1002F900F0A3C8C582C8CAC583CADFE9DEE780BEE4
:0103C3000039
:00000001FF
